:1000000000400020BD460000F3460000F546000019
:10001000F7460000F9460000FB460000F1460000EC
:10002000F1460000F1460000F1460000FD460000E8
:10003000FF460000F14600000147000003470000B2
:10004000350E000061370000094700000B47000033
:100050000D4700000F470000114700001347000044
:100060004D43000069370000194700001B4700009E
:100070001D4700001F4700002147000023470000E4
:100080002547000027470000294700002B470000B4
:100090002D4700002F470000314700003347000084
:1000A0007531000037470000394700003B4700002A
:1000B0003D4700003F470000000000000000000036
:1000C0000000000000000000000000000000000030
:1000D0000000000000000000000000000000000020
:1000E0000000000000000000000000000000000010
:1000F0000000000000000000000000000000000000
:1001000010B5054C237833B9044B13B10448AFF351
:1001100000800123237010BD000A002000000000B1
:10012000A4AD000008B5064B1BB106480649AFF365
:1001300000800648036813B1054B03B1984708BD1A
:1001400000000000A4AD0000040A002050090020B7
:1001500000000000154B002B08BF134B9D46A3F574
:10016000803A00218B460F461348144A121A04F0B5
:100170002BFB0F4B002B00D098470E4B002B00D0D1
:1001800098470020002104000D000D48002802D0EF
:100190000C4806F0C1FD04F0E3FA2000290002F04B
:1001A00023F904F0CDFA00BF000008000040002051
:1001B0000000000000000000000A0020981200204B
:1001C000196D0000D17C0000024BDB6C1B0EDBB212
:1001D00018467047B081E00F00B583B000F016F804
:1001E0000190084B5B6803F00F03019A22FA03F3B6
:1001F0000193054B019A1A60019B184603B05DF804
:1002000004FB00BF00800C40A80F002000B583B0A5
:100210002F4BDB6A03F47053B3F5805F0AD0B3F55C
:10022000005F03D0B3F5006F08D00BE0294B1B68CB
:10023000019347E04FF40043019343E0264B1B68D2
:1002400001933FE0224BDB6803F4E063B3F5007FEA
:100250001BD0B3F5007F05D8002B24D0B3F5807FE9
:1002600016D02BE0B3F5806F09D0B3F5A06F03D0A3
:10027000B3F5407F06D021E0184B019321E0184BE5
:1002800001931EE0174B01931BE0174B019318E0FD
:10029000FFF79AFF0346122B02D9144B019310E08B
:1002A000134B01930DE0FFF78FFF0346122B02D98A
:1002B000104B019305E0104B019302E000230193E2
:1002C00000BF00BF019B184603B05DF804FB00BFF0
:1002D00000800C400400002000000020003FAB0123
:1002E000406F4001809FD500C0D8A70040B5640092
:1002F000C0CF6A00804F120040420F00704700BF1D
:100300004FF4004318467047014B1B68184670476E
:100310000400002082B001900091FEE786B00390B7
:1003200002910192039B03F10473DA00029B1344D0
:100330009B000593059B019A1A6006B0704700BFA9
:1003400082B0134B5B680193019B03F00703032BFF
:1003500018D801A252F823F06903000069030000D5
:100360007703000077030000019B23F0070343F0AD
:100370000103019306E0019B23F0070343F003030D
:10038000019300BF024B019A5A6002B0704700BF50
:1003900000000C4000B587B00190019B002B03D0FA
:1003A000019BB3F5004F03D909488721FFF7B2FF3E
:1003B000019B0493049BB3FA83F30393039BDBB287
:1003C000C3F11F030593059B184607B05DF804FBB6
:1003D00024A2000084B001901C4B5B680393019A37
:1003E0001B4B9A4217D9019A1A4B9A4213D8039B76
:1003F00003F00703023B012B06D8039B23F00703FE
:1004000043F00303039306E0039B23F0070343F049
:100410000103039300BF019A0D4B9A4211D8039B2D
:1004200003F00703023B012B06D8039B23F00703CD
:1004300043F00203039304E0039B23F007030393B9
:1004400000BF024B039A5A6004B0704700000C4092
:100450000024F4000048E80182B0034B0193019BA3
:10046000184602B0704700BF809FD50000B583B02A
:10047000104800F05FFA03468DF803309DF8033012
:10048000072B05D0082B07D1FFF7C0FE01900BE02A
:10049000FFF7E2FF019007E007484FF4B071FFF764
:1004A00039FF0023019300BF019B184603B05DF89C
:1004B00004FB00BF0400180024A2000000B585B0B2
:1004C0000190019B002B07D0019B012B04D01A48FF
:1004D00040F27711FFF71EFF184B9A6A019B5B00F1
:1004E00022FA03F303F00303032B1CD801A252F8F2
:1004F00023F000BF21050000050500000D050000E8
:1005000015050000FFF7FCFE03900FE0FFF7FCFE6F
:1005100003900BE0FFF760FE03465B08039305E0E2
:100520000023039302E00023039300BF039B1846BC
:1005300005B05DF804FB00BF24A2000000800C4061
:1005400082B00190074B5B6D03F00103002B00D0DC
:1005500006E000BF034B1A6D019B1340002BF9D13D
:1005600002B0704700800C4000B585B0019000914A
:10057000019B1B0903F00F030393039B013B032B18
:1005800000F2C58001A252F823F000BF9D050000D3
:10059000CF0500000B0600008F060000009B002B1B
:1005A00003D0009BB3F5007F04D95D4840F21A31B7
:1005B000FFF7B0FE0098FFF7EDFE0090594B594A47
:1005C000926822F00F01009A0A439A60A5E0009B0E
:1005D000B3F5007F04D9524840F22231FFF79AFE6A
:1005E000FFF7AEFE0098FFF7D5FE00904D4B4D4A49
:1005F000526822F00F01009A0A435A60FFF7ECFD9F
:1006000002900298FFF7E6FE87E0019B464A93427C
:1006100003D0464A934219D032E0009BB3F5004F15
:1006200004D93F4840F25131FFF774FE0420FFF730
:1006300087FF0098FFF7AEFE00903A4B394A926E62
:1006400022F00F01009A0A439A661FE0009BB3F55F
:10065000004F04D9324840F25F31FFF75BFE0420BF
:10066000FFF76EFF0098FFF795FE00902D4B2D4A87
:10067000926E22F0F001009A12010A439A6605E098
:10068000274840F28B31FFF745FE00BF45E0019B54
:10069000274A934203D0274A934218D030E0009B68
:1006A000082B04D91E4840F29531FFF733FE402055
:1006B000FFF746FF0098FFF76DFE0090194B194AAF
:1006C000126F22F00301009A0A431A671EE0009B92
:1006D000082B04D912484FF46971FFF71BFE402024
:1006E000FFF72EFF0098FFF755FE00900D4B0D4AC7
:1006F000126F22F03001009A12010A431A6705E0D6
:10070000074840F2B231FFF705FE00BF05E004489C
:100710004FF46E71FFF7FEFD00BF05B05DF804FBFE
:1007200024A2000000800C403004080030140A00AD
:10073000400514004015160000B587B001900B4627
:100740008DF8033000230493019B1B0A03F00F0371
:10075000013B052B24D801A252F823F075070000B5
:100760007B07000081070000870700009107000059
:100770009B070000184B059318E0184B059315E0F4
:10078000174B059312E0174B0593012304930DE0DB
:10079000154B05931023049308E0144B059305E0D3
:1007A000134840F20D41FFF7B5FD11E0019B1B0B13
:1007B00003F01F030393049B002B02D00498FFF760
:1007C000BFFE9DF80330059803991A46FFF7A6FD72
:1007D00007B05DF804FB00BF08800C4044800C406B
:1007E00040800C4058800C4060800C4078800C4069
:1007F00024A2000000B585B00190019B03F478139A
:10080000B3F5202F4FD0B3F5202F12D8B3F5802F9A
:1008100033D0B3F5802F05D8002B1ED0B3F5003FA1
:100820001FD076E0B3F5C02F2BD0B3F5002F2DD01D
:100830006FE0B3F5B01F56D0B3F5B01F06D8B3F5CF
:10084000901F3ED0B3F5A01F40D062E0B3F5C01FAB
:1008500057D0B3F5D01F58D05BE0FFF7D7FC03901B
:100860005FE0FFF7D3FC0390304B9B6803F00F036E
:10087000039A22FA03F3039353E0FFF7ADFC0390CE
:100880004FE00020FFF71AFE03904AE00020FFF738
:1008900015FE0390254B9B6E03F00F03039A22FA7B
:1008A00003F303933DE00020FFF708FE03901F4B86
:1008B0009B6E03F0F0031B09039A22FA03F30393E0
:1008C0002FE00120FFF7FAFD03902AE00120FFF757
:1008D000F5FD0390154B1B6F03F00303039A22FAF7
:1008E00003F303931DE00120FFF7E8FD03900F4B96
:1008F0001B6F03F030031B09039A22FA03F30393DF
:100900000FE0FFF7B3FD03900BE0FFF7A5FD0390A9
:1009100007E0074840F2B741FFF7FCFC00230393D0
:1009200000BF039B184605B05DF804FB00800C4037
:1009300024A2000000B585B0019001238DF80F308E
:10094000019B03F00F030293029B013B032B64D82E
:1009500001A252F823F000BF69090000A7090000B6
:10096000DD090000130A0000334BDB6A03F4705307
:10097000B3F5805F0AD0B3F5005F03D0B3F5006F25
:1009800008D00BE002238DF80F300BE003238DF825
:100990000F3007E004238DF80F3003E005238DF8B6
:1009A0000F3000BF42E0244B9B6A03F00303022B8D
:1009B00007D0032B09D0012B0BD103238DF80F3067
:1009C0000BE002238DF80F3007E006238DF80F307F
:1009D00003E001238DF80F3000BF27E0164B9B6A20
:1009E00003F00C03082B07D00C2B09D0042B0BD1E0
:1009F00003238DF80F300BE002238DF80F3007E052
:100A000006238DF80F3003E001238DF80F3000BF6F
:100A10000CE007238DF80F3008E0084840F25551EC
:100A2000FFF778FC00238DF80F3000BF9DF80F30E2
:100A3000184605B05DF804FB00800C4024A20000BD
:100A400000B589B001900B468DF80330032307935E
:100A500003238DF81B30019B03F00F030493049BC9
:100A6000012B06D0012BC0F09480032B00F2918063
:100A700043E09DF80330023B032B23D801A252F838
:100A800023F000BF950A0000A10A0000AD0A000093
:100A9000B90A00000423079300238DF81B3017E0E8
:100AA0000323079301238DF81B3011E002230793E2
:100AB00002238DF81B300BE00123079303238DF8ED
:100AC0001B3005E0374840F2C651FFF723FC66E0D3
:100AD0009DF81B3018460121012200F069F8FFF74C
:100AE0002FFC314B079A5A6200F0F6FBFFF774FBBC
:100AF00003900398FFF76EFC51E09DF80330013B33
:100B0000052B2AD801A252F823F000BF250B0000C4
:100B10002B0B00003B0B00005B0B00005B0B00008D
:100B20004B0B0000002305931DE000200121012252
:100B300000F03EF80223059315E001200121012277
:100B400000F036F8012305930DE018480221012238
:100B5000FFF7E4FB0323059305E012484FF4C2615D
:100B6000FFF7D8FB1BE0049B022B08D10E4B0E4A6B
:100B7000926A22F00301059A0A439A620FE00A4B37
:100B8000094A926A22F00C01059A92000A439A627D
:100B900005E0044840F27261FFF7BCFB00BF09B0FA
:100BA0005DF804FB24A2000000800C4040800C4053
:100BB00000B587B0134602468DF807200A468DF827
:100BC00006208DF805309DF80730042B32D801A29D
:100BD00052F823F0210C0000130C0000F70B00006A
:100BE000E90B0000050C000001230493022303938A
:100BF0000223059324E0042304930823039308238A
:100C000005931DE0102304932023039320230593D1
:100C100016E04023049380230393802305930FE081
:100C20004FF4807304934FF4007303934FF40073F5
:100C3000059305E0104840F2F671FFF76BFB17E0F3
:100C40009DF80630002B0ED00C4B049A1A629DF8CA
:100C50000530002B0AD000BF084BDA6A059B134011
:100C6000002BF9D002E0054B039A1A6200F034FB26
:100C700007B05DF804FB00BF24A2000000800C4018
:100C800082B003468DF80730074B9DF907205209C3
:100C90009DF8071001F01F01012000FA01F143F84F
:100CA000221002B0704700BF00E100E082B00346AE
:100CB0008DF80730074B9DF9072052099DF8071062
:100CC00001F01F01012000FA01F1203243F8221047
:100CD00002B0704700E100E082B003468DF80730B3
:100CE000074B9DF9072052099DF8071001F01F01DD
:100CF000012000FA01F1603243F8221002B070477F
:100D000000E100E086B0039002910192039B03F1A1
:100D10000473DA00029B13449B000593059B019A20
:100D20001A6006B0704700BF88B001908DF80310BC
:100D30008DF802208DF80130019B1A013C4B9B6815
:100D4000134406939DF80230002B02D0069B0793B4
:100D500005E0019B1A01364BDB6813440793069BA1
:100D6000DB680593059B002B03D09DF80220059BB3
:100D70001A72099B002B14D0079B9B6803F04063F9
:100D80009B0E0493049B032B03D1079B099A1A60C3
:100D900007E0049B0A9A9A40099B13441A46079B52
:100DA0001A60089B002B12D0079B9B689B0F049333
:100DB000049B032B03D1079B089A5A6007E0049B0E
:100DC0000A9A9A40089B13441A46079B5A60019B53
:100DD000012202FA03F303939DF80130002B03D0A4
:100DE000134B039A9A6102E0114B039ADA619DF862
:100DF0000230002B03D00E4B039A5A6302E00C4BD7
:100E0000039A1A63079B9B6823F47F5323F03703ED
:100E100002930A9B1B01029A134302939DF803302D
:100E2000029A13430293079B029A9A6008B0704794
:100E300000200C4000B58BB0354B03F580531B6888
:100E40000693334B03F580530C331B68069A13400B
:100E50000693069B002B00DAFEE72D4B9B6B059358
:100E6000069A059B134008930023079349E000234B
:100E700009933BE0089B03F00103002B30D0244B87
:100E80009B6804930122099B02FA03F30393204B0E
:100E900003F580530833039A1A60099B1B01049AD7
:100EA0001344DB680293029B002B19D0029B1B7A30
:100EB0000193029B1B7A83F00103DAB2029B1A7240
:100EC000029B1B68002B0BD0029B1B680998019AA0
:100ED000002A0CBF00220122D1B2029A5268984720
:100EE000089B5B080893099B01330993089B002B1F
:100EF000C0D1059BDA43069B13400893079B01333F
:100F00000793079B012BB2DD0BB05DF804FB00BF1C
:100F100000200C4000B589B0079005930B468DF872
:100F20001B3013468DF81A30079B072B04D9124843
:100F300040F2CD11FFF7EEF90B9BB3F5806F04D3B0
:100F40000D484FF4E771FFF7E5F99DF81B209DF878
:100F50001A30059900910A9901910B99029107980D
:100F60000121FFF7E1FE054B079A012101FA02F288
:100F70009A6209B05DF804FB3CA2000000200C401E
:100F800000B585B001900091019B072B04D925483D
:100F900040F2C521FFF7BEF9009B002B04D1214888
:100FA00040F2C621FFF7B6F91F4B9B680393019BE4
:100FB0001B01039A1344009A9268DA60009B1B7825
:100FC000002B06D0184B019A012101FA02F29A6314
:100FD00005E0154B019A012101FA02F2DA63124B86
:100FE000009A5168019A02F5886243F82210009B2A
:100FF0005B78002B0ED00C4B019A012101FA02F212
:1010000003F5805308331A60084801990122FFF75D
:1010100079FE04E0054801990022FFF773FE05B050
:101020005DF804FB3CA2000000200C400C300C409A
:1010300000B587B003900B4601928DF80B30039BEF
:10104000072B04D91C4840F21231FFF763F9019BCA
:10105000002B04D1184840F21331FFF75BF99DF8DB
:101060000B30002B03D0154B9B68059302E0134B0C
:10107000DB680593039B1B01059A13440593019BB1
:101080001B789A07019B9B781B071A43019B5B788F
:101090009B061A43019B9B781B0613431A46019B30
:1010A0001B799B041A43019BDB789B031A43059B26
:1010B0009A6007B05DF804FB3CA2000000200C40E1
:1010C00000B583B00190019B002B04D1174840F27A
:1010D000EB31FFF71FF9019B5B68DBB2002B04D0FB
:1010E000124840F2EE31FFF715F911480121FFF7E0
:1010F00023FB00F021F80020FFF7EEFD0020FFF7B2
:10110000BFFD0C4B03F580530C334FF000421A60C7
:10111000084B019A52689A60064B019A1278520164
:1011200042F001025A6003B05DF804FB3CA20000EB
:101130000013040000200C4000B583B00020FFF72E
:10114000B5FD1A4B00225A60184BFF22DA61174B8B
:10115000FF225A62154BFF22DA62144BFF225A63B8
:10116000124BFF22DA63114B0122DA640F4B03F5B5
:1011700080530C3300221A600C4B03F58053083364
:101180000B4A1A600023019309E0084B019A02F50B
:101190008862002143F82210019B01330193019BD7
:1011A000072BF2DD03B05DF804FB00BF00200C400C
:1011B000FF00008008B5FFF70FF808BD024B0022C2
:1011C000C3F88420704700BF00800C40024B45F6F6
:1011D0000E02C3F88420704700800C4000B583B035
:1011E000264BD3F8843003F001030193FFF7EEFFA1
:1011F000224B234A128802F4AA721A62204B1B88DF
:1012000003F47053B3F5805F06D0B3F5005F0ED0E2
:10121000B3F5006F16D020E000BF184BDB6A03F077
:101220008003002BF9D0154B03225A6215E000BF52
:10123000124BDB6A03F40073002BF9D00F4B04222E
:101240005A620AE000BF0D4BDB6A03F00803002B73
:10125000F9D00A4B02225A6200BF094B1B8803F0E7
:101260000103002B02D1054B02221A62019B002BC5
:1012700001D0FFF7A3FF03B05DF804FB00800C4032
:101280001C0A002000B583B003468DF807300F4BD1
:10129000DB6A9AB20E4B1A800E4B0E4A126942F06C
:1012A00004021A6130BF9DF80730002B02D0FFF70F
:1012B00095FF07E0064B1B8803F48063002B01D1E8
:1012C000FFF778FF03B05DF804FB00BF00800C401F
:1012D0001C0A002000ED00E0024BDB6A9AB2024BD0
:1012E0001A80704700800C401C0A002086B00390D2
:1012F00002910192039B03F10473DA00029B1344F1
:101300009B000593059B019A1A6006B0704700BFC9
:1013100000B585B0009101468DF807108DF80620C4
:101320008DF805309DF80730052B02D8009B0F2B58
:1013300003D929489621FEF7EDFF009B072B14D80F
:10134000264B264AD2F80011009A92000F2000FA8C
:1013500002F2D24311409DF80700009A920000FA71
:1013600002F20A43C3F8002116E0009B083B0393F6
:101370001A4B1A4AD2F80411039A92000F2000FA6D
:1013800002F2D24311409DF80700039A920000FA3E
:1013900002F20A43C3F804219DF806301048009970
:1013A0001A46FFF7A3FF9DF805300E4800991A462C
:1013B000FFF79CFF094B009A012101FA02F2C3F8E2
:1013C0001C219DF81830084800991A46FFF78EFF37
:1013D00005B05DF804FB00BF6CA200000060004097
:1013E000086100400C6100401061004010B584B0FD
:1013F0000291019303468DF80F3013468DF80E309D
:101400009DF80F30052B02D8029B0F2B03D94F48B4
:10141000CB21FEF77FFF9DF80E30002B21D0019BE2
:10142000002B0FD04A489DF80F20029B012101FAA2
:1014300003F319461346DB0013449B0003441033A7
:1014400019600EE042489DF80F20029B012101FA2D
:1014500003F319461346DB0013449B000344103387
:101460005960029B072B20D839489DF80F20384C33
:101470009DF80F100B46DB000B449B00234459687A
:10148000029B9B000F2404FA03F3DB4319409DF8F1
:101490000E40029B9B0004FA03F319431346DB0042
:1014A00013449B000344596027E029489DF80F200E
:1014B000274C9DF80F100B46DB000B449B00234488
:1014C00008331968029B03F18043083B9B000F24FB
:1014D00004FA03F3DB4319409DF80E40029B03F12D
:1014E0008043083B9B0004FA03F319431346DB00D7
:1014F00013449B000344083319609DF80E30002B01
:1015000021D1019B002B0FD011489DF80F20029B89
:10151000012101FA03F319461346DB0013449B0033
:101520000344103319600EE009489DF80F20029B18
:10153000012101FA03F319461346DB0013449B0013
:1015400003441033596004B010BD00BF6CA200000A
:101550000060004082B001900091019B1B6C03F081
:101560000103002B00D006E000BF019B5A6C009BDA
:101570001340002BF9D102B0704700BF00B587B00F
:10158000039002910192019B002B04D122484FF459
:101590008471FEF7BFFE029B002B17D1039A1F4BED
:1015A0009A4202D11E4B05930CE0039A1D4B9A42BE
:1015B00002D11D4B059305E017484FF49A71FEF7D1
:1015C000A9FE25E00598FFF715F90290029B5A0144
:1015D000019BB2FBF3F30493049B203B0493049B15
:1015E000DB000493049A47F6F8739A4204D90A4838
:1015F00040F24111FEF78EFE049A47F6F87313404D
:10160000049303980421FFF7A5FF039B049ADA6073
:1016100007B05DF804FB00BF84A200000040084052
:1016200040051400004408404015160082B00190A7
:101630000B468DF803309DF80330002B08D000BF17
:10164000019B5B6C002BFBD1019B01221A6402E021
:10165000019B00221A6402B0704700BF00B583B03E
:1016600001900091019A1D4B9A4208D0019A1C4B9F
:101670009A4204D01B484FF4E671FEF74BFE0198E6
:101680000221FFF767FF019B0A225A60019801219E
:10169000FFF7CCFF019B1B6823F01C02009B1B7B08
:1016A0001A43009B5B7B1A43009B9B7B1A43019B65
:1016B0001A60009B5A68009B9B68019811461A4665
:1016C000FFF75CFF009B1B781A46019B5A6001984C
:1016D0000021FFF7ABFF03B05DF804FB00400840BA
:1016E0000044084084A2000000B583B00190019A34
:1016F000194B9A4208D0019A184B9A4204D01848C4
:1017000040F2F311FEF706FE01980121FFF78EFF6C
:10171000019BEA225A60019B00221A60019B002271
:10172000DA60019B00221A61019B00225A61019B31
:1017300000229A63019B40F2F9725A63019B0022D6
:10174000DA63019B00225A6501980021FFF76EFFC2
:1017500003B05DF804FB00BF0040084000440840AF
:1017600084A2000086B0039002910192039B03F1D2
:101770000473DA00029B13449B000593059B019AB6
:101780001A6006B0704700BF00B587B003900291A1
:1017900001928DF80330019B002B03D12248DB21FD
:1017A000FEF7B8FD019B002B00D13AE0039B1B68BC
:1017B00023F44072039B1A60039B1A689DF8033060
:1017C0001B021A43039B1A60029B002B03D117488C
:1017D000FFF710F802909DF80330154AD35C04938C
:1017E000019B9B00029AD21A049B019901FB03F30F
:1017F000B2FBF3F30593039B1B6803F00203002B7A
:1018000004D0059B002B01D101230593059BB3F563
:10181000007F03D30448F721FEF77CFD039B059A64
:101820001A6107B05DF804FBA4A200001081020059
:10183000A0A2000000B583B001900091019A174B5F
:101840009A4204D0164840F21D11FEF763FD019B39
:1018500000225A63019B134A1A63019A009B5B782A
:10186000002B01D0002300E00123104601211A467D
:10187000FFF778FF009B5968009B9A68009B1B7BD1
:101880000198FFF781FF019A009B1B781046002109
:101890001A46FFF767FF03B05DF804FB00A00040A5
:1018A000A4A20000CFFF010000B589B00190019A09
:1018B000994B9A4204D099484FF4B871FEF72AFD2B
:1018C000019A954B9A4205D1954B0693069B9B68CE
:1018D000059301E0FC23FDE1019B9B6A0493049BBB
:1018E00003F4C063002B14D0049B03F40073002B9B
:1018F00003D0069BFD225A7007E0049B03F480632B
:10190000002B02D0069BFE225A70069B09221A70F9
:10191000CCE1069B1B78082B00F2C08101A252F893
:1019200023F000BF491900009B190000211A000094
:10193000731A0000C51A0000251B0000AD1B000033
:10194000EB1B0000811C0000059B5B8803F010036B
:10195000002B09D0059B1B881B0A9BB203F00603D2
:1019600043F0F00307930EE0059B1B8803F0FE0392
:101970000793059B5B8803F00203002B03D0079BB2
:1019800043F001030793069B01221A70019B079AFB
:101990005A62019B01225A6088E1049B03F0800394
:1019A000002B0CD0019B80221A63069BFF225A70E9
:1019B000069B08221A70019B02225A602FE0049BAA
:1019C00003F04003002B2AD0019B40221A63059BA1
:1019D0005B8803F01003002B08D0069B02221A70CC
:1019E000059B1B88DAB2019B5A6218E0059B5B8855
:1019F00003F00203002B0ED0069B07221A70069BF1
:101A00001B79059ADB0013441B89012B07D1019B2D
:101A100008225A604AE1069B05221A7045E145E119
:101A2000049B03F08003002B0CD0019B80221A63DF
:101A3000069BFF225A70069B08221A70019B022205
:101A40005A6015E0049B03F04003002B10D0019B6B
:101A500040221A63059B5B8803F00203002B03D02E
:101A6000069B03221A7020E1069B05221A701CE1D6
:101A70001CE1059B5B8803F01003002B09D0059B3C
:101A80001B881B0A9BB203F0060343F0F003079385
:101A900004E0059B1B8803F0FE030793059B5B880E
:101AA00003F00403002B03D0079B43F001030793CB
:101AB000069B04221A70019B01225A60019B079A1F
:101AC0005A62F3E0049B03F08003002B0CD0019BCF
:101AD00080221A63069BFF225A70069B08221A7006
:101AE000019B02225A6015E0049B03F04003002B87
:101AF00010D0019B40221A63059B5B8803F004030E
:101B0000002B03D0069B07221A7003E0069B0522D8
:101B10001A70CAE0CAE000BF00A00040A4A2000002
:101B2000200A0020069B5A88069B1B790599DB003A
:101B30000B441B899A4224D3069B00225A80069BA1
:101B40001B790133DAB2069B1A71059B5B8803F09F
:101B50000403002B03D0069B03221A70A5E0059B0B
:101B60005B8803F00103002B03D1069B1B79012B3B
:101B700006D9069B08221A70019B02225A6095E042
:101B800093E0069B1B79059ADB0013445A68069B79
:101B90005B88591C88B20699488013441B781A4602
:101BA000019B5A62069B06221A707FE0049B03F099
:101BB0008003002B0CD0019B80221A63069BFF221E
:101BC0005A70069B08221A70019B02225A600BE091
:101BD000049B03F04003002B06D0019B40221A63B4
:101BE000069B05221A7060E060E0049B03F020036E
:101BF000002B44D0069B1B79059ADB0013441B89FC
:101C00000393019BDB698DF80B30069B5B881A46BA
:101C1000039B9A420FD2069B1B79059ADB00134463
:101C20005A68069B5B88591C88B206994880134401
:101C30009DF80B201A70069B5B881A46039B9A42FC
:101C40000CD3039B012B02D1019B08225A60069BF7
:101C500008221A70019B02225A6010E0019B0422A4
:101C60005A60039B012B0AD9069B5B881A46039B8B
:101C7000013B9A4203D1019B08225A6016E015E00D
:101C8000049B03F48073002B07D0019B4FF48072F8
:101C90001A63069B09221A7008E007E0069BFB22E4
:101CA0005A70069B09221A7000E015E6069B1B7805
:101CB000092B0BD1019B00225A63069B5B785BB218
:101CC000012B05D1069B00225A7001E0012301E09F
:101CD000069B5B785BB2184609B05DF804FB00BF59
:101CE00000B585B001900091019A314B9A4204D021
:101CF000304840F2E921FEF70DFB009B002B04D198
:101D00002C4840F2EA21FEF705FB019A284B9A4243
:101D100008D1294B0393019B9B6803F00103002B1F
:101D200005D001E0FC233DE0019B20225A60009B8E
:101D30005B8803F00203002B03D0009B1B89002B60
:101D400009D0009B5B8803F00403002B05D0009BA7
:101D50001B8A002B01D1FC2324E0039B00221A7074
:101D6000039B01225A70039B00225A80039B00228E
:101D70001A71039B009A9A60019BC0225A60019BD2
:101D80009B6A03F02003002B01D0019BDB69019BC0
:101D90000A4A1A63019B4FF4FC625A630198FFF7E9
:101DA00083FD03465BB2184605B05DF804FB00BF37
:101DB00000A00040A4A20000200A0020CFFF0100E4
:101DC00086B0039002910192039B03F10473DA0041
:101DD000029B13449B000593059B019A1A6006B071
:101DE000704700BF82B00190074B1B6A03F00103EC
:101DF000002B00D006E000BF034B5A6A019B134042
:101E0000002BF9D102B070470000084000B585B042
:101E100001900091019B012B04D8009B03F07F43AC
:101E2000002B03D00E48A621FEF774FA019B002B6D
:101E300002D0012B05D00FE00A4B0393022302933B
:101E400004E0094B03930423029300BF0298FFF7B9
:101E5000C9FF039B009A1A6005B05DF804FB00BF40
:101E6000BCA20000080008400C00084000B583B088
:101E700003468DF807300120FFF7B4FF9DF80730C7
:101E8000034800211A46FFF79BFF03B05DF804FBEF
:101E90000000084000B585B00190019B1B78002B25
:101EA00002D00123039301E000230393019B5B789D
:101EB000002B03D0039B43F002030393019B9B7809
:101EC000002B03D0039B43F0040303930120FFF78F
:101ED00089FF034B039A1A6005B05DF804FB00BF4D
:101EE0000000084084B001900B468DF803309DF847
:101EF0000330062B00F28C8001A252F823F000BFC1
:101F00001D1F00004F1F0000871F0000B91F0000A9
:101F10001120000011200000F11F0000019B5B6BED
:101F200023F4FE4323F07F0303933B4B5B6803F4EE
:101F3000FE43039A13430393374B5B6803F07F031D
:101F4000039A13430393019B039A5A6361E0019B35
:101F50005B6B23F4FE4323F07F0303932E4B5B68FC
:101F600003F0FE431B0E1B02039A134303932A4BF9
:101F70005B6803F4FE031B0C039A13430393019B5A
:101F8000039A5A6345E0019B5B6B23F4FE4323F005
:101F90007F030393204B9B6803F4FE43039A134390
:101FA00003931D4B9B6803F07F03039A1343039332
:101FB000019B039A5A632CE0019B5B6B23F4FE4365
:101FC00023F07F030393144B9B6803F0FE431B0E27
:101FD0001B02039A134303930F4B9B6803F4FE0306
:101FE0001B0C039A13430393019B039A5A6310E05B
:101FF000019B5B6B23F07F030393074BDB6803F0CC
:102000007F03039A13430393019B039A5A6300E0EF
:1020100000BF04B0704700BFB081E00F00B585B0CD
:1020200001900091019A184B9A4204D017484FF43E
:102030008171FEF76FF9019B0A225A60009B1B78A1
:102040001A06009BDB781B0403F4F8131A43009B69
:102050001B791B0203F4FE431A43009B5B781B01B0
:102060001A43009B9B7813430393009B5B79002BDF
:1020700003D0039B43F008030393019B039A1A6068
:1020800005B05DF804FB00BF00200040D4A20000B2
:1020900000B585B001900091019A254B9A4204D079
:1020A00024484FF4B671FEF735F9019B02225A60BD
:1020B000009B9B7801981946FFF714FF009B1B7843
:1020C0001A07009B5B781B051A43009B9B781B0437
:1020D0001A43009B1B791B021A43009BDB781B01F0
:1020E00013430393009B9B79002B03D0039B43F086
:1020F00080730393009BDB79002B03D0039B43F099
:1021000004030393009B5B79002B03D0039B43F0F4
:1021100002030393009B1B7A002B03D0039B43F025
:1021200001030393019B039ADA6005B05DF804FB99
:1021300000200040D4A2000000B585B001900091BD
:10214000019A144B9A4202D9124B019306E0019B6B
:10215000B3F5FA4F02D24FF4FA430193009B002BE0
:1021600003D10D48FEF746FB0090009A019B1344F3
:102170005A1E019BB2FBF3F30393039B002B02D087
:10218000039B013B0393039BDBB2184605B05DF84C
:1021900004FB00BF405DC6001081020000B583B0A3
:1021A0000190019B002B08D10E48FEF723FB019004
:1021B000019B002B01D101230193019B03F57423A3
:1021C00003F23F230193019A074BA3FB02139B0CDD
:1021D0000193019BDBB2013BDBB2184603B05DF813
:1021E00004FB00BF1081020083DE1B4300B585B0F5
:1021F0000190019B002B03D112483E21FEF78AF883
:10220000114B1B69DBB203F03F03DAB2019B1A707A
:102210000D4B9B69DBB223F00F038DF80F300A4B97
:10222000DB6903F0F0031B09DAB29DF80F301343AA
:102230008DF80F30019B9DF80F205A7005B05DF8A6
:1022400004FB00BFECA20000D0FF0FE000B585B09A
:10225000524B1B680393039B1B0E002B15D1504B55
:102260000293029B1B6823F07002029B1A604D4B85
:102270000293029B1B6823F06042029B1A60029B40
:102280001B6863F06062029B1A60039B1B0E032BAA
:1022900020D8444B0293029B1B6823F4FC52029B00
:1022A0001A60414B0293029B00221A603F4B02933B
:1022B000029B00221A603E4B0293029B00221A608E
:1022C0003C4B0293029B00221A603B4B0293029B01
:1022D00000221A606B461846FFF788FF9DF8003011
:1022E000012B17D19DF80130002B07D12E4B029303
:1022F000029B1B6843F00202029B1A609DF80130AA
:10230000012B07D8294B0293029B1B6843F0010263
:10231000029B1A60294B1B680393039A284B9A422D
:1023200039D8224B0293029B1B6843F49042029BD4
:102330001A60244B1B6803F4FE431B0A1B0601931F
:10234000204B1B6803F07F031B04019A1343019386
:102350001C4B1B6803F4FE43019A13430193194B72
:102360001B6803F07F03019A13430193164B0293FA
:10237000029B019A1A60154B0293154B1B6801933F
:10238000029B019A1A60094B0293029B1B6823F47B
:102390009042029B1A6005B05DF804FBFC81E00FDF
:1023A0000CA00C4020600C4040800C4044800C404D
:1023B00058800C4060800C4078800C40F081E00F29
:1023C000FFB98A4CB481E00F342000402C4000401B
:1023D000C881E00F034B034A126922F004021A611C
:1023E00030BF704700ED00E008B5FFF72FFF00F0A9
:1023F00065F84FF4165000F047FA00F0B1F82248A3
:1024000000F026F9214800F023F9214800F020F9D6
:10241000204800F01DF9204800F01AF91F4801F08B
:102420002BFA1F4801F03AF900F070FE1D481E49D2
:102430002D2201F0F9FA02201C4900F063FB032071
:102440001B49124A134B00F05DFB01F04BFF01F0FA
:1024500077F901F0FDFB174B1B78DBB283F001032A
:10246000DBB2002B0BD0144B1B889BB2002B02D08D
:10247000FFF7B0FFEDE70120FEF704FFE9E70D4BA2
:1024800000221A70E5E700BF68A60000ECA9000072
:102490007CA60000F0A9000080A6000018A30000A0
:1024A00008A3000020A3000094A6000038A30000A9
:1024B0008CA60000001200200010002008B50020AB
:1024C00001210122FEF774FB0E480221FEF7B8FA43
:1024D0000D480221FEF7B4FA0C480121FEF72CF951
:1024E0000A480121FEF740F809480121FEF724F9C6
:1024F00008480121FEF720F907480121FEF71CF9E1
:1025000008BD00BF020006000300120030040800EE
:10251000002304001081020000C2020082B001907A
:102520004FF06043D3F8803E03F00103002B12D03C
:102530004FF06043D3F8003E03F00103002B0AD0B4
:1025400000BF4FF060431B68002BFAD04FF0604390
:10255000019AD2B21A70019B184602B0704700BFB0
:1025600008B500F001F808BD314B314A526C42F415
:1025700080525A642F4B2F4AD2F8202142F0040295
:10258000C3F820212B4B2B4AD2F8202122F4407291
:10259000C3F82021274B274AD2F8B82022F47062D2
:1025A000C3F8B820234B234AD2F8B82042F4806203
:1025B000C3F8B8201E4B10221A6200BF1C4BDB6A06
:1025C00003F02003002BF9D01B4B1B4AD26842F0CA
:1025D0008072DA604FF06043184AC3F8B02F4FF0B2
:1025E00060430022C3F8002E4FF060430022C3F87E
:1025F000802E134B0222C3F8F020114B0F221A61D8
:102600004FF060430022C3F8402E0E4B0E4A1A6072
:102610004FF060430D4AC3F8802E094B4FF480728F
:10262000C3F804234FF060430122C3F8002E704723
:1026300000800C4000600040F0ED00E055CEACC5DD
:10264000000004E0001000E0FE0300400D00010067
:1026500000B583B0019007E0019B1B781846FFF797
:102660005DFF019B01330193019B1B78002BF3D18C
:1026700003B05DF804FB00BF82B003468DF807305D
:10268000074B9DF9072052099DF8071001F01F0123
:10269000012000FA01F143F8221002B0704700BF98
:1026A00000E100E072B6074B1B68B3F1FF3F04D0B6
:1026B000044B1B685A1C034B1A60024B1B681846DC
:1026C000704700BF2C0A002082B00B4B1B68002B08
:1026D0000DD0094B1B685A1E074B1A60064B1B682E
:1026E0000193019B002B00D162B6019B00E0002307
:1026F000184602B0704700BF2C0A002000B585B014
:10270000FFF7D0FF314B1B78DBB2002B02D0FFF775
:10271000DBFF57E02D4B01221A70FFF7D5FF2C4B42
:102720001B88ADF80E302B4B1B889BB2BDF80E20DA
:10273000D31A9BB2ADF80C30BDF90C30002B03D18D
:10274000224B00221A703DE0BDF90C30002B0CDA50
:102750004FF48063ADF80E301E4B1B889BB2BDF862
:102760000E20D31A9BB2ADF80C301A4B1B889AB2CC
:10277000BDF80C3013449AB2174B1A80164B1B88C5
:102780009BB2B3F5806F07D3134B1B889BB2A3F5A5
:1027900080639AB2104B1A80BDF80E305A1E0F4B50
:1027A0001A440F4B1A610F4B01221A60BDF90C300D
:1027B000013B00220092019301200121002200230D
:1027C000FEF7A8FB05B05DF804FB00BF360E002045
:1027D000300E0020320E0020340E0020300A00207F
:1027E000001100203400084300B585B003900B466B
:1027F00001928DF80B30084B00221A60074B1B88A2
:102800009AB2074B1A80074B00221A70FFF776FF27
:1028100005B05DF804FB00BF34000843340E00200F
:10282000320E0020360E002008B50F4B0F4ADA603A
:102830000D4B00221A610E48FEF742FC01200D49A3
:10284000FEF79EFB012001210B4AFEF7F1FB0B4B2B
:102850000B4A5A610B4B03F580530C3302221A606A
:102860000020FFF709FF08BD04120020E92700003F
:102870001C00002024000020300000200011002057
:102880002840084000200C4000B583B00190154856
:102890000121FDF751FF14480121FDF74DFF1348B9
:1028A0000121FDF749FF1248FEF71EFF114B019A67
:1028B0009A600F480F49FEF7D1FE0D4B02225A6570
:1028C0000320042104220123FEF790FDFFF7ACFF53
:1028D0000023094A19461180084A138003B05DF8A5
:1028E00004FB00BF0013040000C2020040051400F6
:1028F000004008400C000020320E0020300E002066
:1029000000B585B0019000238DF80D3054E02F4BB9
:102910001B889BB2ADF80E30BDF80E202C4B1B88E7
:102920009BB2D31A9BB2ADF80E30BDF90E30002B1E
:1029300006DABDF80E3003F580639BB2ADF80E30B9
:10294000BDF90E2040F2FE339A4200DD38E0214B03
:102950001B78DBB2002B14D0019B1B780A2B10D103
:102960009DF80D3083F00103DBB2002B09D0174B2B
:102970001B889BB2184A0D21D15401238DF80D30CC
:102980000CE0124B1B889BB21A46019B591C01910B
:102990001978114B995400238DF80D300B4B1B887F
:1029A0009BB201339BB2094A19461180B3F5806F7F
:1029B00002D3064B00221A80019B1B78002BA6D164
:1029C000FFF79CFE05B05DF804FB00BF300E002051
:1029D000320E002008000020300A002000B583B02D
:1029E0000190019B002B03D10548AA21FDF792FC21
:1029F000044B019A1A6000F007F803B05DF804FB7D
:102A00007CA80000380E002008B505200321042210
:102A10000023FEF7EBFC0520042104220023FEF72F
:102A2000E5FC0520052104220023FEF7DFFC1F4BF7
:102A30004FF47F42C3F8A420002008210422012380
:102A4000FEF7D4FC642000F055FD392000F0CCF9ED
:102A5000142000F0C9F9164B1B681B11DBB243F0C0
:102A60005403DBB2DBB2184600F0BEF96D2000F073
:102A7000BBF90F4B1B68DBB203F00F03DBB243F073
:102A80007003DBB2DBB2184600F0AEF9382000F07C
:102A9000ABF90C2000F0A8F9012000F0A5F9062000
:102AA00000F0A2F9034B01221A7008BD006000403B
:102AB000380000203C0E00200C4B00221A700C4BFA
:102AC00000221A600B4B4FF04432C3F898200A4B97
:102AD00000221A60094B00221A60064B0022C3F83C
:102AE0009C20074B00221A60704700BF3C0E00205C
:102AF000A0010C420060004010180C4214180C4257
:102B00000C180C420EB400B584B003468DF80730A3
:102B100006AB03939DF8073018460599039A00F019
:102B200005F804B05DF804EB03B0704700B591B050
:102B30000346029101928DF80F30544B1B78DBB2A3
:102B400083F00103DBB2002B00D09BE09DF80F3037
:102B5000072B05D94E484FF4A771FDF7DBFB91E039
:102B6000029802F05BFD03461E2B05D9484840F24F
:102B70005311FDF7CFFB85E004AB18460299019A8B
:102B800004F03CF8434B19689DF80F2013465B0096
:102B900013440B4419783F4B18689DF80F201346D7
:102BA0005B00134403445B780846194600F0A0F824
:102BB000384B19689DF80F2013465B0013440B44F3
:102BC0009B780E9304AB184602F028FD03460F9342
:102BD0000F9A0E9B9A4205DD04AA0E9B1344002215
:102BE0001A7008E007E00F9B5A1C0F9210AA1344BA
:102BF000202203F8302C0F9A0E9B9A42F3DB04AA92
:102C00000E9B134400221A70224B19689DF80F2066
:102C100013465B0013440B445B781A4613461B01B2
:102C200099181C4B18689DF80F2013465B0013443D
:102C300003441B780B441A46174BD1180F9B04AA68
:102C4000084611461A4602F019FD9DF80F30062B72
:102C500003D09DF80F30032B10D10F480F4902F01D
:102C600061FB0346002B09D00C480B4902F078FCAD
:102C70000948FFF745FE0A48FFF742FE04AB184635
:102C800000F010F811B05DF804FB00BF3C0E00200E
:102C90007CA80000380E00203C000020400E0020E0
:102CA00098A8000000B583B0019006E0019B5A1C73
:102CB00001921B78184600F007F8019B1B78002B47
:102CC000F4D103B05DF804FB00B583B003468DF882
:102CD0000730064B1B78DBB2002B04D09DF8073081
:102CE000184600F0B1F803B05DF804FB3C0E00207C
:102CF00000B585B002460B468DF807208DF80630EA
:102D0000144B1B78DBB283F00103DBB2002B00D045
:102D10001DE09DF807300F2B03D89DF80630012BDE
:102D200004D90D4840F2B711FDF7F4FA9DF80630CA
:102D30009B01DAB29DF8073013448DF80F309DF8EF
:102D40000F3063F07F03DBB2184600F04DF805B09A
:102D50005DF804FB3C0E00207CA8000000B583B0A9
:102D60000F4B4FF01132C3F898200E4B01221A601E
:102D70000D4B00221A600D4B01221A6000F006FC78
:102D8000074BD3F8AC301B0A8DF80730074B0022F5
:102D90001A609DF80730184603B05DF804FB00BFC9
:102DA0000060004010180C4214180C420C180C4221
:102DB00000B583B0002301930DE0FFF7CFFF03467A
:102DC000DBB25BB2002B01DB002308E000F0DEFB8E
:102DD000019B01330193019B1F2BEEDD012318465C
:102DE00003B05DF804FB00BF00B583B003468DF867
:102DF0000730FFF7DDFF0346002B00D018E00E4B35
:102E00004FF04432C3F898200C4B00221A600C4B50
:102E100000221A60084B9DF807201202C3F89C207C
:102E2000084B01221A6000F0B1FB064B00221A6029
:102E300003B05DF804FB00BF0060004010180C42B6
:102E400014180C420C180C4200B583B003468DF8E0
:102E50000730FFF7ADFF0346002B00D018E00E4B04
:102E60004FF04432C3F898200C4B00221A600C4BF0
:102E700001221A60084B9DF807201202C3F89C201B
:102E8000084B01221A6000F081FB064B00221A60F9
:102E900003B05DF804FB00BF0060004010180C4256
:102EA00014180C420C180C4286B003900291019247
:102EB000039B03F10473DA00029B13449B00059308
:102EC000059B019A1A6006B0704700BF00B585B037
:102ED00001901D4B1B6803931C4800210022FFF743
:102EE000E3FF1B4B1B681B4A126802FB03F2039BA8
:102EF00013440393184B1B68002B0CD0144B1B6816
:102F0000154A126802FB03F2144B1B88B2FBF3F262
:102F1000039B13440393124B5A68104B1B88B2FB5C
:102F2000F3F2039B13440393084800210122FFF7A7
:102F3000BBFF019B002B02D0019B039A1A60039BED
:102F4000184605B05DF804FB6C0E00201C0008401C
:102F5000700E0020740E0020780E0020680E0020F5
:102F60000000084000B583B00190019B5B6A9AB2F3
:102F7000104B1A80104B00221A600E4B1B884FF02A
:102F8000807292FBF3F31A460C4B1A60094B1B88B4
:102F90001A464FF0807393FBF2F102FB01F29B1A89
:102FA0001A46074B1A60019B184600F00BF803B055
:102FB0005DF804FB680E0020700E0020740E0020E7
:102FC000780E002000B583B00190019B00221A62A8
:102FD000019801F053FD0246024B1A6003B05DF800
:102FE00004FB00BF6C0E0020044B1B685A1C034BF3
:102FF0001A60024B1B681846704700BF700E002015
:10300000014B1B6818467047700E002082B00346C3
:103010008DF80730074B9DF9072052099DF80710DE
:1030200001F01F01012000FA01F143F8221002B063
:10303000704700BF00E100E082B003468DF8073022
:10304000074B9DF9072052099DF8071001F01F0159
:10305000012000FA01F1603243F8221002B07047FB
:1030600000E100E086B0039002910192039B03F11E
:103070000473DA00029B13449B000593059B019A9D
:103080001A6006B0704700BF72B6074B1B68B3F1F9
:10309000FF3F04D0044B1B685A1C034B1A60024BC1
:1030A0001B681846704700BF2C0A002082B00B4BEB
:1030B0001B68002B0DD0094B1B685A1E074B1A606A
:1030C000064B1B680193019B002B00D162B6019B4C
:1030D00000E00023184602B0704700BF2C0A002011
:1030E00082B00190024B019A9A6102B0704700BF12
:1030F0000000084082B00190034B034AD169019A55
:103100000A43DA6102B070470000084030B58DB064
:10311000174B02AC1D460FCD0FC40FCD0FC495E861
:10312000030084E803000E2307934FF400430B933E
:1031300002AB1846FFF716FF00238DF80530002379
:103140008DF8063000238DF8043001AB1846FEF7E9
:10315000A1FE0320FFF7CEFF0120FEF787FE182017
:10316000FFF76AFF1820FFF751FF0DB030BD00BF19
:103170009CA8000000B583B0594B1B690093584BC5
:10318000DB69009A13400093009B03F00103002BBE
:1031900004D0FFF729FF524B01229A61009B03F0F4
:1031A0000203002B00F084804D4B9B6803F5004325
:1031B00023F07F4300201946FEF728FE484B0222E9
:1031C0009A61012000F010FA0023019321E0454BA1
:1031D000019A53F83230002B18D0424B019A53F821
:1031E0003230013B3F4A019942F83130002B0DD17A
:1031F0003C4A019BDB0013445B68002B06D0394A34
:10320000019BDB0013445B6801989847019B0133E5
:103210000193354B1B68019A9A42D8DD334B1B78DA
:103220005AB2334B5B689A4242D0314B5B68DAB298
:103230002E4B1A700023019337E02E4B019A13F89E
:103240003230DBB2002B2DD02A4A019BDB00134425
:103250009B78DBB25AB2264B5B689A4222D1254A50
:10326000019BDB0013445B78DBB25BB2B3F1FF3F41
:103270000AD0204A019BDB0013445B78DBB25AB2D0
:103280001B4B9B689A420DD11A4A019BDB001344E9
:103290005B68002B06D0174A019BDB0013445B6878
:1032A00001989847019B01330193019B092BC4DDD1
:1032B000009B03F00403002B0ED00F4802210022D4
:1032C000FFF7D0FE064B04229A610C4B1B68002BC3
:1032D00002D00A4B1B68984703B05DF804FB00BF9F
:1032E00000000840CC0E00201C0F002064000020CD
:1032F000681200207C0E00201C000840200F0020D7
:1033000000B585B00190019B002B04D1214840F20B
:10331000D911FCF7FFFF0023039316E01E4A039B1D
:10332000DB0013445B68002B0CD11B4B039A00217C
:1033300043F83210184A039BDB001344019A5A6089
:10334000039B23E0039B01330393144B1B68039AF5
:103350009A42E3DD114B1B68082B04DD0D4840F257
:10336000E911FCF7D7FF0D4B1B68013303930A4BA0
:10337000039A002143F83210074A039BDB001344F1
:10338000019A5A60054B039A1A60039B184605B0D0
:103390005DF804FBC4A80000CC0E00201C0F002028
:1033A00000B583B001900091019B002B07DB104B0F
:1033B0001B68019A9A4202DC009B002B04D10D4845
:1033C00040F21F21FCF7A6FF0B4A019BDB001344D0
:1033D0005B68002B04D1074840F22221FCF79AFFDA
:1033E000054B019A009943F8321003B05DF804FBD5
:1033F0001C0F0020C4A80000CC0E002000B583B034
:103400000190019B002B04DB084B1B68019A9A4238
:1034100004DD07484FF40E71FCF77CFF054B019A61
:10342000002143F8321003B05DF804FB1C0F0020AC
:10343000C4A80000CC0E002000B583B00190019B11
:10344000002B04D105484FF41371FCF763FF044BC4
:10345000019A1A6003B05DF804FB00BFC4A8000025
:10346000200F002000B583B00190019B002B03D0FA
:10347000019BB3F5003F04D313484FF41971FCF7D7
:1034800049FF124B1B68002B04D10F4840F2672103
:10349000FCF740FF0E4B5A68019BD9030D4BA3FB71
:1034A00001039B09134423F07F4301201946FEF7D3
:1034B000ADFC0420FFF714FE074802210122FFF7AC
:1034C000D1FD03B05DF804FBC4A80000200F00206C
:1034D00000000840D34D62101C00084008B50448A5
:1034E00002210022FFF7BEFD0420FFF7F9FD08BD11
:1034F0001C00084000B587B00190019B002B03D051
:10350000019BB3F5003F04D31D484FF42671FCF72F
:1035100001FFFFF7B9FD1B4B5B680593FFF770FDDB
:103520000490FFF7C3FD019BDA03174BA3FB0213C3
:103530009A09059B134423F07F430393039A059B49
:103540009A420CD900BF0F4B5A68039B9A4213D280
:10355000FFF756FD0246049B9A42F4D00CE000BFF0
:10356000FFF74EFD0246049B9A42F9D000BF054B7F
:103570005A68039B9A42FAD307B05DF804FB00BF78
:10358000C4A8000000000840D34D621082B00A4B6E
:103590005B68019300BF084B5A68019B9A42FAD0BE
:1035A000054B5B68019300BF034B5A68019B9A422D
:1035B000FAD002B0704700BF0000084000B583B0E9
:1035C0000190019B002B04D1054840F2E321FCF758
:1035D000A1FE044B019A1A6003B05DF804FB00BF22
:1035E000C4A80000240F002030B585B003468DF834
:1035F00007309DF80730002B16D0FFF745FD00205F
:10360000FFF764FC0346039303AB184601F0D0F8C0
:1036100003460A4A14461D460FCD0FC40FCD0FC4F2
:103620002B682360FFF742FD054B1B68002B02D07F
:10363000034B1B68984705B030BD00BF68120020DF
:10364000240F002082B003468DF80730074B9DF908
:10365000072052099DF8071001F01F01012000FA10
:1036600001F143F8221002B0704700BF00E100E012
:1036700082B003468DF80730074B9DF907205209A9
:103680009DF8071001F01F01012000FA01F16032DE
:1036900043F8221002B0704700E100E000B583B0AB
:1036A0000190019B002B03D121485E21FCF732FEE3
:1036B000204B019A1A60204B0022C3F810211E4BA8
:1036C0000022C3F808211C4B0022C3F80C211A4B1E
:1036D0004FF6FF72C3F81C21184B00221A600AE053
:1036E000019B1B881A46154B1B681A43134B1A6023
:1036F000019B08330193019B1B88002BF0D10E4BDB
:103700000E4A1268C3F808210B4B0C4A1268C3F822
:103710000C210120FFF7ACFF0120FFF793FF0920E8
:10372000FFF7A6FF0920FFF78DFF03B05DF804FB4C
:10373000DCA80000280F0020006000402C0F0020B3
:10374000054B4FF6FF72C3F81C21034B034A126866
:10375000C3F81021704700BF006000402C0F00200C
:1037600008B500F005F808BD08B500F001F808BD7F
:1037700000B58BB03C4B5B6806933C4BD3F81431DF
:1037800005933A4BD3F81031059A13400593059BE6
:10379000002B00D165E0354B059AC3F81C21344B52
:1037A0001B68059A1340099358E0099B0193019BFC
:1037B000B3FA83F30093009BDBB2C3F11F030493BE
:1037C0000122049B02FA03F30393039BDB43099A50
:1037D00013400993049B072B0ADC244BD3F80021E8
:1037E000049B9B0022FA03F303F0070308930AE00B
:1037F0001E4BD3F80421049B083B9B0022FA03F3E1
:1038000003F0070308931949089A1346DB00134491
:103810009B000B4418335A68039B1340002B0CBFCA
:10382000002301238DF80B30124B1B68079311E026
:10383000079B1B881A46039B1340002B07D0079B4E
:103840005B689DF80B2004981146069A9847079BE1
:1038500008330793079B1B88002BE9D1099B002B9A
:10386000A3D10BB05DF804FB0000084000600040ED
:103870002C0F0020280F002000B585B00390039B7B
:10388000002B03D121486321FCF744FD039B5B68B7
:10389000002B03D11D486421FCF73CFD1C4B039A0F
:1038A0001A601C480121FCF747FF00200521012276
:1038B0000023FDF79BFD002300930020052100223B
:1038C0000023FDF725FD0020042101220023FDF740
:1038D0008DFD002300930020042100220023FDF72A
:1038E00017FD0020032101220023FDF77FFD0023A7
:1038F00000930020032100220023FDF709FD064864
:10390000FFF79AFD05B05DF804FB00BFF0A80000CA
:10391000300F002000C20200013A000000B587B05D
:1039200003900B4601928DF80B30039B042B1DD0A6
:10393000052B02D0032B20D058E001238DF817303F
:1039400001238DF816309DF80B30002B0CBF00239F
:103950000123DBB283F00103DBB28DF80B309DF85D
:103960000B3003F001038DF80B300DE002238DF8CE
:10397000173004238DF8163006E003238DF8173036
:1039800007238DF8163000BF9DF80B30002B11D0A7
:10399000184B1B789DF817209A4200D026E0FFF7BD
:1039A0009DFD9DF8163002338DF81630114B002224
:1039B0001A7014E00F4B1B78002B00D016E00D4B53
:1039C0009DF817201A709DF816300133DAB20A4BB1
:1039D0001A700A4B1B681B881846FFF743FD074BFC
:1039E0001B685B689DF816201046984707B05DF885
:1039F00004FB00BF340F0020350F0020300F0020E3
:103A000008B5074B1B685B881846FFF72BFD044B76
:103A10001B685B68034A12781046984708BD00BFD0
:103A2000300F0020350F002000B585B003900291C3
:103A30000192039B002B03D126487821FCF76AFCF6
:103A4000029B002B03D123487921FCF763FC224B16
:103A5000029A1A60214B019A1A6003200021042265
:103A60000123FDF7C3FC1E4B1B68B3F1FF3F05D1DB
:103A70001C48FFF745FC0246194B1A601A4B1B689D
:103A8000B3F1FF3F0BD11948FFF73AFC0246164B42
:103A90001A60154B1B6818467821FFF781FC144B00
:103AA0001B68B3F1FF3F05D11248FFF729FC02461E
:103AB0000F4B1A601048FFF781FD104B01221A804E
:103AC0000F4B01221A700398FEF788FF05B05DF8CE
:103AD00004FB00BF04A90000380F00203C0F0020A9
:103AE00068000020DD4100006C0000200942000059
:103AF000700000201D42000089410000901200204B
:103B0000440F002000B583B003468DF807309DF8C0
:103B10000730013B082B00F2888001A252F823F005
:103B2000453B0000573B0000C33B00005F3B0000EB
:103B3000713B0000C33B0000913B0000A33B000031
:103B4000C33B00003B4B1B78DBB283F00103DBB2CD
:103B5000002B00D04DE0384B00221A6049E0354B75
:103B60001B78DBB283F00103DBB2002B00D040E016
:103B7000314B1B685A1C304B1A602F4B1A682F4B65
:103B80001B689A4203DB2C4B00221A6031E030E0C4
:103B9000284B1B78DBB283F00103DBB2002B00D093
:103BA00027E0254B1B685A1E234B1A60224B1B68CB
:103BB000002B05DA214B1B685A1E1F4B1A6018E0B8
:103BC00017E01F4B1B68B3F1FF3F05D01C4B1B6870
:103BD00018463C21FFF7E4FB1A4B1B68B3F1FF3F8B
:103BE00006D0184B1B6818467821FFF7D9FB1DE05B
:103BF0001CE0154B70221A80114B1B68B3F1FF3F7C
:103C000004D00F4B1B681846FFF7F8FB0D4B1B68E1
:103C1000B3F1FF3F04D00B4B1B681846FFF7EEFBD8
:103C2000094B1A88094B1A8000E000BF03B05DF809
:103C300004FB00BF440F0020400F00203C0F002079
:103C4000680000206C0000209012002092120020DA
:103C500000B583B0274B1A68274B1B689A4206D0E1
:103C6000244B1A68244B1A60062000F09FFA234B5D
:103C70001B78DBB2002B14D0214B1B6801931F4B28
:103C800000221A70019B002B08D01D4B00221A60E5
:103C90001C4B1A68019B1046984702E0002000F078
:103CA0009DFA194B1B88002B17D0184B1B78DBB2E1
:103CB00083F00103DBB2002B04D0FEF7A5FE134B0B
:103CC00001221A70124B1A880F4B1B8813409BB2AB
:103CD000002B0CD000F01EF809E00C4B1B78DBB277
:103CE000002B04D0FEF7E8FE084B00221A7003B048
:103CF0005DF804FB68120020500F0020450F0020E3
:103D0000480F00204C0F002090120020440F00208C
:103D10009212002070B586B000238DF81730B8E0FD
:103D20009DF817309B001A465D4B03F188735B01C9
:103D300013441B68002B0BD09DF817309B001A46CC
:103D4000584B03F188735B0113441B68002B00D1AF
:103D50009AE09DF817309B001A46514B03F1887387
:103D60005B01134400221A609DF81730072B00F204
:103D70008A8001A252F823F0993D0000993D00008D
:103D8000873E0000873E0000A73D0000C33D0000C5
:103D9000FD3D0000573E00009DF81730184642498F
:103DA000FEF7B0FE70E0414B1A68414B1B68DB0028
:103DB00013449DF8172010463E490CCBFEF7A2FE97
:103DC00062E03A4B1A683A4B1B68DB0013449B884D
:103DD0001BB2B3F1FF3F10D0344B1A68344B1B6851
:103DE000DB0013449B889BB2DBB29DF81720104682
:103DF00031491A46FEF786FE46E045E02B4B1A682D
:103E00002B4B1B68DB001344184600F05DF8049050
:103E1000049B002B18D0254B1A68254B1B68DB0030
:103E200013449B881BB2B3F1FF3F07D09DF81730B6
:103E300018462049049AFEF765FE25E003201D4937
:103E4000049AFEF75FFE1FE09DF8173018461B49E5
:103E5000FEF758FE18E01A4B5A69194B1B690133DB
:103E60001749CE6816498D6815494C681449086889
:103E70009DF8171000960195029403900846114989
:103E8000FEF740FE00E000BF9DF8173001338DF8CB
:103E900017309DF81730072B7FF642AF06B070BD84
:103EA00092120020901200201CA90000380F002060
:103EB000400F002020A9000024A900002CA9000028
:103EC0006812002038A9000010B58CB003904FF0A4
:103ED000FF330B93039B002B04D196484FF4DA7108
:103EE000FCF718FA039B002B01D100231FE1039B71
:103EF0009B88ADF82A30BDF92A30B3F1FF3F48D096
:103F0000BDF92A301B129BB29BB2DBB20B930B9B09
:103F1000002B33D00B9B132B04DD864840F2C111DC
:103F2000FCF7F8F9BDF92A2004AB10461946142213
:103F300000F0BEFA0346002B01DA0023F7E000236D
:103F40000B9302E00B9B01330B937B4B1A6804A984
:103F50000B9B0B441B78013313441B7803F00803BD
:103F6000002B02D00B9B132BECDD0B9B04AA1344FC
:103F70007248194601F0F4FA0346D8E0BDF92A3038
:103F8000184600F025FA0B900B9B002B01DA00235A
:103F9000CDE0039B9B790F2B00F2C68001A151F865
:103FA00023F000BFE53F0000F33F0000294100007F
:103FB0002D40000039400000454000005140000005
:103FC0005D400000694000007D4000008D40000021
:103FD00099400000A5400000B1400000BD40000035
:103FE000DF40000055485649564A574B01F074F9D6
:103FF0009CE000F043FB03460B930B9B534A82FB70
:1040000003129211DB17D41A0B9A504B83FB021345
:104010009911D317CB1A4FF47A7101FB03F3D31A1A
:1040200046484B49224601F057F97FE04348494949
:104030000B9A01F051F979E0404847490B9A01F099
:104040004BF973E03D4845490B9A01F045F96DE0A5
:104050003A4843490B9A01F03FF967E03748414934
:104060000B9A01F039F961E00B9BDA0F13445B10F6
:1040700032483D491A4601F02FF957E00B9B5B008F
:104080002E4839491A4601F027F94FE02B483749A5
:104090000B9A01F021F949E0284835490B9A01F0C3
:1040A0001BF943E0254833490B9A01F015F93DE02F
:1040B000224831490B9A01F00FF937E00B9B5B1254
:1040C00003F2BC720B9B5B1103F00F030B9901F021
:1040D0001F0100911948294901F0FEF826E00B9BC9
:1040E000A3F6AC230B930B9B254A82FB0312921081
:1040F000DB17D31A09930B9B002B02DA0B9B5B4255
:104100000B930B9A1E4B83FB02139910D317CC1AF7
:1041100023469B0023445B00D41A08481949099A96
:10412000234601F0D9F801E0002300E0034B1846D4
:104130000CB010BD04A9000088000020540F00201E
:1041400054A90000ECA90000F0A90000D34D6210B2
:104150005CA9000070A9000078A900007CA90000FB
:1041600084A900008CA9000094A900009CA900006B
:10417000A4A90000ACA90000B4A90000BCA90000DB
:1041800067666666CCA90000064B1B78DBB2002B85
:1041900006D0054B03F188735B011C3301221A60C2
:1041A000704700BF440F00209212002082B00346E7
:1041B0008DF807309DF807309B001A46054B03F138
:1041C00088735B01134401221A60034B01221A70A9
:1041D00002B07047921200200012002082B00190BD
:1041E000064B1B78DBB2002B02D0054B00221A8055
:1041F000044B01221A7002B0704700BF7400002007
:10420000901200200012002082B00190024B002288
:104210001A6002B0704700BF000F0C4200B583B0B7
:104220000190084B1B68002B03D0074B01221A702A
:1042300002E00020FFF7D2FF044B01221A7003B006
:104240005DF804FB480F0020450F002000120020FD
:1042500082B003468DF80730074B9DF907205209BD
:104260009DF8071001F01F01012000FA01F143F849
:10427000221002B0704700BF00E100E082B00346A8
:104280008DF80730074B9DF9072052099DF807105C
:1042900001F01F01012000FA01F1603243F8221001
:1042A00002B0704700E100E0034B034A126922F0BC
:1042B00004021A6130BF704700ED00E082B0019047
:1042C000019B5B6A184602B0704700BF82B0019044
:1042D0000B468DF803309DF80320019B5A6002B015
:1042E000704700BF08B514480121FCF725FA1348B0
:1042F0000121FCF721FA12480121FCF71DFA0020E8
:1043000001210A220123FDF771F8002000210A2271
:104310000123FDF76BF80B4B03229A6309480A4906
:10432000FDF788FA0820FFF7A9FF0820FFF790FFA4
:1043300000F04AF908BD00BF00C2020000F202000E
:1043400000E2020000A000407800002008B5044808
:10435000FDF7AAFA03461A46024B1A7008BD00BFC1
:1043600000A00040680F002000B583B0154B20224C
:104370005A606420FFF7BEF8134BDB6903F00203B9
:10438000002B1CD1104B01225A610E4B02229A6362
:104390000E4B5B68019309E00C4B5A68019BD31AE2
:1043A00023F07F43B3F5203F00D905E0064BDB69DE
:1043B00003F00203002BEFD0024B03229A6303B0F9
:1043C0005DF804FB00A000400060004000000840D1
:1043D00000B58BB00346ADF80630BDF8063023F0CB
:1043E000FF039BB2002B04D02D484FF48D71FBF7D7
:1043F00091FF0A23ADF810300423ADF8123003AB5F
:104400000593BDF80630DBB28DF80C300123ADF812
:10441000183002AB07930223ADF8203004AB2148DB
:104420001946FDF75DFC03461A461F4B1A701E4BDA
:104430001B78DBB25BB2002B04DA1B4B1B78DBB2C0
:104440005BB229E0194B5B6809930FE0FFF72CFF83
:10445000164B5A68099BD31A23F07F43B3F5804F5C
:1044600004D9FFF781FF104BF6221A700E4B1B7810
:10447000DBB25BB2012BE9D00B4B1B78DBB2002B1C
:1044800004D0094B1B78DBB25BB205E09DF8093024
:104490001A029DF80830134318460BB05DF804FB70
:1044A000D4A9000000A00040680F002000000840D0
:1044B00000B58DB0034602910192ADF80E30BDF803
:1044C0000E3023F0FF039BB2002B04D13A4840F298
:1044D0006711FBF71FFF029B002B04D136484FF4F6
:1044E000B471FBF717FFBDF90E301B129BB29BB2E4
:1044F000DAB2019B9A4204D92F4840F26911FBF7C6
:1045000009FFBDF90E301B129BB29BB2DAB2019BC0
:104510009A4202D96FF00A0349E00A23ADF8183035
:104520000423ADF81A3005AB0793BDF80E30DBB2AB
:104530008DF814300123ADF82030029B0993BDF8AB
:104540000E301B0A9BB2ADF8283006AB1B4819464B
:10455000FDF7C6FB03461A46194B1A70184B1B7819
:10456000DBB25BB2002B04DA154B1B78DBB25BB21B
:104570001DE0144B5B680B930FE0FFF795FE114BAA
:104580005A680B9BD31A23F07F43B3F5804F04D9AD
:10459000FFF7EAFE0A4BF6221A70094B1B78DBB2D2
:1045A0005BB2012BE9D0064B1B78DBB25BB218463D
:1045B0000DB05DF804FB00BFD4A9000000A00040CE
:1045C000680F00200000084000B587B000238DF878
:1045D000103000238DF8113000238DF812301F2386
:1045E0008DF8133000238DF8143000238DF815302A
:1045F00000238DF8043000238DF8053000238DF85A
:10460000063000238DF8073000238DF80830002392
:104610008DF8093000238DF80A3000238DF80B3017
:1046200000238DF80C300020FDF7B8FD03468DF80F
:10463000133010480021FDF77FFD03468DF814303C
:1046400004AB0D481946FDF7E9FC00238DF8063050
:1046500009238DF8083000238DF8073005238DF8E5
:10466000053001AB04481946FDF712FD07B05DF8AF
:1046700004FB00BFC0CF6A000020004000B583B03B
:104680000D480121FFF722FE00BF0B4B9B6803F092
:104690000103002BF9D10848FFF710FE0190019BA0
:1046A00040F6A66202FB03F31B0B0193019B184625
:1046B00003B05DF804FB00BF0020004007488047BE
:1046C0000749084A084B9B1A40F30580043BC85829
:1046D000D0503FF7FBAF054800470000FD02000047
:1046E000B0AD00000000002050090020550100007E
:1046F000FEE7FEE7FEE7FEE7FEE7FEE7FEE7FEE792
:10470000FEE7FEE7FEE7FEE7FEE7FEE7FEE7FEE781
:10471000FEE7FEE7FEE7FEE7FEE7FEE7FEE7FEE771
:10472000FEE7FEE7FEE7FEE7FEE7FEE7FEE7FEE761
:10473000FEE7FEE7FEE7FEE7FEE7FEE7FEE7FEE751
:1047400008B50021044602F06FFA044B1868C36BE9
:1047500003B19847204604F0FDFD00BF10AB0000F8
:1047600070B50F4E0F4D761BB61007D0043D0024D8
:10477000013455F8043F9847A642F9D10A4E0B4D33
:1047800005F044FD761BB61008D0043D002401342A
:1047900055F8043F9847A642F9D170BD70BD00BFDF
:1047A00044090020440900204C090020440900204D
:1047B000024B19687C3100F003B800BFB804002038
:1047C000002200F0D5BB00BFF0B4840743D0541ED4
:1047D000002A3ED0CDB2034603E0621E002C38D042
:1047E000144603F8015B9A07F7D1032C2AD9CDB2FE
:1047F00045EA05250F2C45EA054515D9A4F1100712
:104800003F0903F1100606EB07161A4615605560BE
:104810009560D5601032B242F8D104F00F04013730
:10482000032C03EB07130DD91E462246043A032A34
:1048300046F8045BFAD8221F22F003020432134424
:1048400004F003042CB1C9B21C4403F8011BA342B9
:10485000FBD1F0BC704714460346C6E72DE9F0478C
:10486000016882B03B29044600F2C08041683B29C0
:1048700000F28F80A168172900F29A8025690B2D1C
:1048800000F2A68063699F0734D17A4AD91782FB68
:1048900003066420C1EB661100FB1131002968D0CA
:1048A000E2681D26002A744F29DC2946DFF8C4C1BE
:1048B00064254FF4C87808E0012B00F0A48057F875
:1048C000230019460244002A39DC4B1E0029F3D18B
:1048D00061694B1E9E07636140F098808CFB030664
:1048E000D817C0EB661005FB1033002B00F0918049
:1048F0001D268CE01C26E2685F4F002AD5DDDFF81C
:1049000074814FF0000C4FF064094FF4C87A6B1CAF
:10491000002107EB85050AE068589042C0EB0202CF
:104920000FDA0C2BE26023610ED001330431022B2D
:10493000F2D1964205DA921BE2602361F5E723612A
:10494000E26002B0BDE8F0876169C4F810C04B1C9A
:104950009807636102D01C260025D8E788FB030571
:10496000D817C0EB651009FB1033002B5FD01D2654
:10497000F2E703F26C7382FB0312D917C1EBE21268
:104980004FF4C87101FB1233002B0CBF1D261C26EF
:10499000B1E73C22684602F0C5F9A2680099019B84
:1049A0001144002BA1605FDB172963607FF666AFBF
:1049B0001822684602F0B6F99DE80C00E168002B69
:1049C0000A44E26041DB2569A3600B2D7FF65AAFF4
:1049D00029460C22684602F0A5F99DE82800626984
:1049E000002D1344636135DB25614CE73C226846AA
:1049F00002F098F99DE80C006168002B1144616099
:104A00002DDB236033E7304619465BE71C260B237A
:104A100055E701F26B718CFB0130CB17C3EBE01350
:104A200008FB131100290CBF1D261C26EFE701F21D
:104A30006D7188FB0130CB17C3EBE0130AFB131138
:104A400000290CBF1D261C2686E71833013AA360F7
:104A5000E26013E70C35013B2561636113E73C33EA
:104A600001392360616002E73C3301396360A16072
:104A700001E700BF1F85EB5144AB00002DE9F84F63
:104A8000064603F03DF907463046FFF7E7FEC64C01
:104A9000336972683568F068C2EB0212B16854F885
:104AA000234005EB82054FF4616C0138012B0CFBB0
:104AB000015C0444756902DDA80700F0BF8005F5BC
:104AC0001C53103344F620629342F46100F2468195
:104AD000462D00F3898051D0452D4CD0B348452355
:104AE00040F26D194FF0640E4FF4C8781EE080FB61
:104AF00003A14FEAE37BCBEB61110EFB113103F213
:104B00006C724FEAE27A002940F0078180FB02B123
:104B1000CAEBE11A08FB1A22002A0CBF4FF4B77245
:104B20004A46013BAB42C2EB040408D09A07DED0F0
:104B3000013B40F26D12AB42C2EB0404F6D1AB076D
:104B400019D19A4BEA1783FB05106421C2EB60125E
:104B500001FB1252002A40F0F78005F26C7283FBD1
:104B600002A3D117C1EBE3134FF4C87101FB132269
:104B7000002A00F0E98040F26D13E41A8C4B03FB2D
:104B800004C802F01DF88B4B1B68002B00F0C1809D
:104B90007069326A7B6800F26C70012AB4BF924679
:104BA0004FF0010A834259D000F016F9002855D180
:104BB000D146B9F1010F40F0AD80FB6B984402F093
:104BC00001F87D4A043484FB0223E2172344C2EB3C
:104BD000A303C3EBC303E31A48BF0733C6F820900F
:104BE000B3614046BDE8F88F7048462340F26D1926
:104BF0004FF0640E4FF4C8781BE080FB03B14FEA1E
:104C0000E37BCBEB61110EFB113103F26C724FEAC7
:104C1000E27A01BB80FB02B1CAEBE11A08FB1A225F
:104C2000002A0CBF4FF4B7724A460133AB4214441A
:104C3000A4D09907E1D040F26D12F6E75B4BEA177A
:104C400083FB05106421C2EB601201FB1252002AA3
:104C500066D0013433E74FF4B772E6E7B96B386AD0
:104C6000FB6BFA69C0EB0109C845C3EB020202DB2A
:104C7000C91A88459CDB3968002960D0904566DAFE
:104C80004FF00009BAF1000F93DB89EA0A0ABAF182
:104C9000010F8ED1C31AB9F1000F00D15B42326807
:104CA00030461A4432609844D6F80CA0FFF7D6FD7F
:104CB000F368B3EB0A033FF47CAF012B7EDD4FF0CA
:104CC000FF33F2691C449B184FD4AA074AD1374AD4
:104CD000E91782FB05AE6420C1EB6E1100FB115198
:104CE00000296FD105F26C7582FB05B2E917C1EBA3
:104CF000E2124FF4C87101FB125540F26D12002D03
:104D000008BF4FF4B7729A42D8BFC2EB0303F361F6
:104D10004FE799463B6A984451E74FF4B77200E772
:104D200005F26C7283FB02A3D117C1EBE3134FF4BE
:104D3000C87101FB1322002A7FF4C1AE89E79045B8
:104D400005DB4FF001099DE74FF4B77315E7C84540
:104D5000ACBF4FF000094FF0010993E74FF0FF306F
:104D6000BDE8F88F40F26D12CDE76B1E99072CD18C
:104D70000E4AD91782FB03BE6420C1EB6E1100FB03
:104D800011332BBB05F26B7582FB0502EB17C3EBEE
:104D9000E2134FF4C87202FB135540F26D13002D5D
:104DA00018BF4FF4B673B2E714AB00001F85EB5188
:104DB000805101006C0F002093244992981CD8BFA9
:104DC00001237EE74FF4B7729DE74FF4B6739EE779
:104DD00040F26D139BE700BF2DE9F04F83B004460E
:104DE00002F08EFF40F2B1739C42064640F3988079
:104DF0005B4BE01783FB04276FF4F66204EB0209B8
:104E0000A4F26D716FF4C86C83FB01254FEAA90908
:104E100004EB0C02A4F2B278C0EBE71C40F26D1A6E
:104E20004FF4C87B0AFB08980BFB1C4B83FB0293D7
:104E3000C0EB6717642000FB1747C917A1EB65118A
:104E4000D2178844C2EBE3137460DBF1010B04F06A
:104E50000304DFF818C1019438BF4FF0000B9844E9
:104E600034460025BA46237A4A2B5DD0442B6FD0B6
:104E7000019A002A4ED05B465800E7681844394B27
:104E8000012F03EB001066DDBF00A0F10809B94453
:104E9000031F414653F8042F4B451144FAD1043FF8
:104EA0000097314F01F1040989FB072309EB030245
:104EB0004FEAE973C3EBA202C2EBC2026369C2EB21
:104EC00009092269B3EB0903DDF8009002F1FF3212
:104ED00048BF073350F80900C2EBC20213448342B3
:104EE00002DB073B8342FCDA0B44A069226A0CFB1D
:104EF000030001350244022D44F81C2FB3D1B36BDB
:104F0000F26901209A42ACBF00230123336003B051
:104F1000BDE8F08FBAF1000F0CBF5B460123ABE791
:104F2000002003B0BDE8F08F6269019902EB08032D
:104F300049B9BAF1000F06D03B2AD4BF00220122A2
:104F40001344013BD1E7BBF1000FF5D15A46F7E717
:104F500063694344C9E7002741460097A1E700BFC2
:104F60001F85EB5174AB00009324499280510100DE
:104F70002DE9F84F80460E46174602F0C1FED8F8DC
:104F80000020B54B824683FB0203D117B34C134478
:104F9000C1EB234304FB1324002C04DA04F5A834EA
:104FA00004F5C074013BAE49E21781FB049CA444A4
:104FB000C2EBEC2C4FF4616101FB1C41A948AA4CE7
:104FC0001A1D80FB01B082FB04454418C817C0EBD2
:104FD000641402EB0509D017C0EBA900C0EBC000B8
:104FE000101AC4EB041548BF0730A1EB8501002B54
:104FF00086E81210B0619D4D9D4840F2B2744FF4A6
:10500000C87CC0F2A5804FF0640B10E0E21785FB6E
:105010000491C2EBE1120CFB1242D2F1010238BF43
:10502000002250F822108B4211DB01345B1AA207D8
:10503000ECD185FB0421E217C2EB61110BFB11419E
:105040000029E4D0012250F822108B42EDDA4FEA19
:1050500042094A44A4F26C75864900201201F361AA
:10506000756130618D5801EB0209AB4208DB49469E
:10507000012232615B1B51F8045F01329D42F8DD71
:105080000133F36027B1002333623046BDE8F88F67
:1050900001F096FD784B1B68002B7AD13762DAF865
:1050A00020006F4FC51780FB0723C118C5EBE12116
:1050B0004FF4616303FB11016A4C87FB002E81FBF7
:1050C000042384FB0172CC17CF18C4EB67170A4482
:1050D0000EEB0003C4EB6212C7EB071E346877685F
:1050E000B068A1EB8E01611AC5EBE323C31ABA1AAB
:1050F0003B2986E80E0068DD01323C3986E806006F
:105100003B2A40F3838001333C3AB3607260172B33
:1051100062DDB269F1690132062AC8BF0022B261BC
:10512000F2680131F161183B01323169B360F2601C
:1051300059F821309A4206DD0131D31A0C29F36067
:1051400000F08380316101F03DFD3046BDE8F88F0D
:105150004FF064090FE0E21785FB04B1C2EBE112E6
:105160000CFB1242D2F1010238BF002250F822108B
:105170005B187FF56CAF013CA107ECD185FB04B156
:10518000E217C2EB611109FB11410029E4D00122B1
:10519000ECE7DAF80430A34204D02046FFF71CFE07
:1051A00000284BD0DAF80030002B37D0D8F8003088
:1051B000DAF81C20934245DBDAF83820934241DAD2
:1051C00001233362DAF83C006BE7002998DA013AF0
:1051D0003C3186E8060093E7002BB4DAB269F16946
:1051E000013A48BF0622B261F26801391833013A28
:1051F000F161B360F260002AA5D13369013B3DD46F
:1052000033619B0059F80330F3609CE7002ABFF636
:105210007EAF013B3C32B360726078E7D8F8003073
:10522000DAF81C209342CBDADAF838209342ACBF8C
:10523000002301233362002BC4D130E74FF0FF334A
:1052400033622CE70023336229E7726900230132BD
:1052500072613361F36176E707452EC28051010028
:10526000C5B3A29189888888932449921F85EB5100
:10527000D4AB000074AB00006C0F002073690B21ED
:105280005A1E72619207316114D003F26B73DA1700
:1052900010484FF4C87180FB03B0C2EBE01201FB71
:1052A0001233D3F1010338BF002303F5B673F36162
:1052B0002C23A7E7074903F26B7381FB0371DA170D
:1052C000C2EB6111642000FB11310029E0D040F2F3
:1052D0006D13ECE71F85EB510EB4F0B59CB021AC1B
:1052E00054F8042B0E49064623464FF4027E6FF015
:1052F000004508684FF6FF7702A9029606960194CA
:10530000ADF814E004950795ADF8167000F0E8F9D3
:10531000029B00221A701CB0BDE8F04003B0704739
:10532000B804002040EA010C1CF0070F27D1BDF1A2
:10533000100DCDE90245CDE900676FF000064FF092
:10534000000700BFF0E80223F1E80245A242A2F103
:10535000013C2CEA020C0CF0803C08BFBCF1000FB1
:1053600040F0E580AB42A3F1013C2CEA030C0CF0C9
:10537000803C08BFBCF1000F40F0D680E2E710F09F
:10538000030C21D020F0030050F8042B5FEACC7C02
:1053900008D00FD211F801CB5FFA92F3B3EB0C0CEB
:1053A00010D17BB111F801CB5FFAA2F3B3EB0C0C77
:1053B00008D13BB111F801CB5FFAB2F3B3EB0C0C9F
:1053C00000D10BB960467047BDF1100DCDE9024523
:1053D000CDE900676FF000064FF0000711F0030CF5
:1053E00033D110F0040F0FD050F8042B51F8044BB8
:1053F000A242A2F1013C2CEA020C0CF0803C08BF56
:10540000BCF1000F40F0938011F0040F99D051F8D7
:10541000045B00BFF0E80223AA42A2F1013C2CEA9F
:10542000020C0CF0803C08BFBCF1000F79D1F1E810
:105430000245A342A3F1013C2CEA030C0CF0803C92
:1054400008BFBCF1000F69D1E4E721F00301BCF112
:10545000020F20D03FDA51F8045B00BF50F8043B44
:105460004FEA1525A3F1013C2CEA030C0CF0803C1B
:10547000B7EB0C2F03EA162208BFAA4251D151F80C
:10548000045BBCF1000F82EA03034FEA056208BF28
:10549000934240D1E2E751F8045B00BF50F8043B6F
:1054A0004FEA1545A3F1013C2CEA030C0CF0803CBB
:1054B000B7EB0C4F03EA164208BFAA4231D151F8AC
:1054C000045BBCF1000F82EA03034FEA054208BF08
:1054D000934220D1E2E751F8045B00BF50F8043B4F
:1054E0004FEA1565A3F1013C2CEA030C0CF0803C5B
:1054F000B7EB0C6F03EA166208BFAA4211D151F84C
:10550000045BBCF1000F82EA03034FEA052208BFE7
:10551000934200D1E2E719BA12BA0AE019BA22BAE4
:1055200007E011BA2ABA04E019BA2ABA01E011BA9E
:1055300022BA9CFA8CF0DDE90067DDE902451DF135
:10554000100D38B1B0FA80F0C0F1180021FA00F166
:1055500022FA00F20120914298BF8041704700BFBB
:1055600080EA0102844612F0030F4FD111F0030FBD
:1055700032D14DF8044D11F0040F51F8043B0BD01B
:10558000A3F101329A4312F0803F04BF4CF8043B70
:1055900051F8043B16D100BF51F8044BA3F101327E
:1055A0009A4312F0803FA4F101320BD14CF8043B36
:1055B000A24312F0803F04BF51F8043B4CF8044B67
:1055C000EAD023460CF8013B13F0FF0F4FEA3323D8
:1055D000F8D15DF8044B704711F0010F06D011F8B7
:1055E000012B0CF8012B002A08BF704711F0020FA5
:1055F000BFD031F8022B12F0FF0F16BF2CF8022B90
:105600008CF8002012F47F4FB3D1704711F8012BB2
:105610000CF8012B002AF9D1704700BF20F00301DC
:1056200010F00300C0F1000051F8043B00F1040C3D
:105630004FEACC0C6FF000021CBF22FA0CF21343AD
:105640004FF0010C4CEA0C2C4CEA0C4CA3EB0C0276
:1056500022EA030212EACC1204BF51F8043B0430E0
:10566000F4D013F0FF0F1FBF013013F47F4F013050
:1056700013F47F0F18BF0130704700BF40EA0103E9
:105680009B0770B42AD1032A28D90C460346214629
:1056900054F8045BA5F1013626EA050616F0803FB2
:1056A00005D1043A032A43F8045B2146EFD89AB1A6
:1056B0000C78013A1C7001333CB16AB111F8014F0A
:1056C000013A03F8014B002CF7D12AB11A4400210A
:1056D00003F8011B9342FBD170BC70470346E6E719
:1056E0002DE9F04FC9B010930C9191460D9002F046
:1056F0000BFB00681590FFF791FF0C9C1890A38995
:105700001E0603D52369002B01F0818038ACA44626
:1057100008942B9400250024CDE91645002311930D
:105720002D932C931A9319930E93664699F8003093
:10573000002B00F0F880252B00F0F58009F1010224
:1057400001E0252B04D0137814460132002BF8D148
:10575000C9EB04057DB12C9B2D9A01332A44072BFC
:10576000C6F8009075602D922C9300F3C280083625
:105770000E9828440E902378002B00F0C28000235E
:1057800094F801801A468DF88F300F93099304F135
:1057900001094FF0FF340A9409F10109A8F120032F
:1057A000582B00F2C583DFE813F06A02C303C3037A
:1057B0007102C303C303C303C303C303C3031403BB
:1057C0006603C3039D00C000C30378027F027F020B
:1057D0007F027F027F027F027F027F027F02C3037C
:1057E000C303C303C303C303C303C303C303C30389
:1057F000C30390027103C3037103C303C303C30351
:10580000C3036A03C303C3037800C303C303C3030F
:10581000C303C3035900C303C303AF02C303C303DA
:10582000C303C303C303C303C303C303C303C30348
:1058300037034803710371037103FF024803C30375
:10584000C3030803C303C5027C002003A303C303EF
:10585000D902C3035F00C303C303DE00DDF824C025
:105860004CF0100CCDF824C0099CA20600F1548322
:10587000099CE30600F1BD85DDF824C01CF0400F53
:1058800000F0B785DDF840C00025BCF800400CF101
:10589000040C0123CDF840C08CE0099D45F01005B3
:1058A0000995DDF824C01CF0200340F02A83DDF8C0
:1058B00024C01CF0100240F0A485DDF824C01CF0C8
:1058C000400300F09E85DDF840C01346BCF8004060
:1058D0000CF1040C0025CDF840C06BE00F9C109338
:1058E00064420F94099D45F00405099599F80080DC
:1058F00052E70D980C992BAA03F0AEF840B938AED8
:1059000036E72D9B23B10D980C992BAA03F0A4F830
:105910000C9C0E98A38913F0400F18BF4FF0FF3076
:1059200049B0BDE8F08F4C4625E799F8008009F1B1
:105930000100B8F12A0F01F00C81A8F13003092B06
:1059400098BF002101F26B8010F8018B01EB8101FF
:1059500003EB4101A8F13003092BF5D941EAE171CC
:105960000A9181461AE7099DA14CAF061A948DF859
:105970008F2040F1D181DDF840C00CF1070323F006
:10598000070303F108041094D3E90045DDF824C0AF
:105990001CF0010F00F0628454EA050000F05E8400
:1059A00030234CF0020C8DF890308DF89180CDF8BA
:1059B00024C002234FF0000A8DF88FA00A99002915
:1059C00005DBDDF824C02CF0800CCDF824C054EAAF
:1059D000050040F0C5820A99002940F0C182002BE1
:1059E00040F03884DDF824C01CF0010F00F0328450
:1059F00048AF3023089D07F8413DEC1BDDF828C077
:105A000000256445A8BFA446CDF82CC01495BAF172
:105A1000000F02D00B9D01350B95099B13F002037B
:105A2000129302D00B9D02350B95DDF824C01CF0BB
:105A3000840CCDF84CC040F090820F9DDDF82CC056
:105A4000CCEB050BBBF1000F40F38782BBF1100FCD
:105A50002D992C9ADFF8A0A12CDD1B9730465746D4
:105A60001025CA460C9EA1460D9C06E0ABF1100B1A
:105A7000BBF1100F00F1080017DD01321031072AC9
:105A80002D912C9207604560F0DD204631462BAA0F
:105A900002F0E2FF00287FF43BAFABF1100BBBF14B
:105AA000100F2D992C9A38A8E7DC4C46D146BA46FF
:105AB0001B9F064601320BEB010C072ACDF8B4C040
:105AC0002C9286E8000C00F31A849DF88FA008360B
:105AD000BAF1000F0FD02C9B0CF1010C01330DF12A
