:1000000000400020512900008729000089290000B4
:100010008B2900008D2900008F2900008529000010
:10002000852900008529000085290000912900000C
:1000300093290000852900009529000097290000D8
:10004000CD0700000D1E00009D2900009F29000023
:10005000A1290000A3290000A5290000A72900006C
:10006000ED260000111E0000AD290000AF290000A0
:10007000B1290000B3290000B5290000B72900000C
:10008000B9290000BB290000BD290000BF290000DC
:10009000C1290000C3290000C5290000C7290000AC
:1000A000F11B0000CB290000CD290000CF29000062
:1000B000D1290000D329000000000000000000004A
:1000C0000000000000000000000000000000000030
:1000D0000000000000000000000000000000000020
:1000E0000000000000000000000000000000000010
:1000F0000000000000000000000000000000000000
:1001000010B5054C237833B9044B13B10448AFF351
:1001100000800123237010BD000A002000000000B1
:10012000C48F000008B5064B1BB106480649AFF363
:1001300000800648036813B1054B03B1984708BD1A
:1001400000000000C48F0000040A0020A009002065
:1001500000000000154B002B08BF134B9D46A3F574
:10016000803A00218B460F461348144A121A02F0B7
:1001700075FC0F4B002B00D098470E4B002B00D086
:1001800098470020002104000D000D48002802D0EF
:100190000C4804F00BFF02F02DFC2000290000F0B9
:1001A000D5FF02F017FC00BF00000800004000204F
:1001B0000000000000000000000A0020A013002042
:1001C000AD4F0000695F0000204AD36A03F470530A
:1001D000B3F5805F35D0B3F5005F04D0B3F5006FA1
:1001E00004D11B4B00E01B4B18687047D36803F425
:1001F000E063B3F5007F16D008D8B3B1B3F5807FC4
:100200001DD1154B154AD86C154B12E0B3F5806F14
:100210001AD0B3F5A06F04D0B3F5407F0FD11148C9
:10022000704711487047114870470B4B104AD86C03
:10023000104BB0F1985F34BF10461846704700204D
:1002400070474FF4004070470B48704700800C40E7
:100250000400002000000020B081E00FC0CF6A0041
:1002600040B56400809FD500003FAB01C0D8A70017
:1002700040420F00804F1200406F400108B5FFF769
:10028000A3FF044B5B6803F00F03D840024B1860D8
:1002900008BD00BF00800C407410002070474FF470
:1002A00000407047014B1868704700BF00000020F5
:1002B0000A494B6803F00702032A0CD8DFE802F072
:1002C0000202070723F0070343F0010303E023F0D2
:1002D000070343F003034B60704700BF00000C406E
:1002E000104A10B5104C11490244A2424B680BD879
:1002F00003F00702023A012A23F0070394BF43F0F8
:10030000030343F001030BE0094A904208D803F0CD
:100310000702023A012A23F0070398BF43F00203C1
:100320004B6010BDFFDB0BFFFF23F40000000C400F
:100330000024F400034B5A6DD20702D41A6D104208
:10034000FCD1704700800C4008B50D4B40009B6A03
:10035000C34003F00303022B07D0032B09D0012B6A
:100360000BD1BDE80840FFF79ABFBDE80840FFF792
:1003700099BFFFF783FF400808BD002008BD00BFFC
:1003800000800C40C0F30313013B10B50C46032B57
:100390006DD8DFE803F0020E2147B1FA81F4344B47
:1003A000E4B29A68C4F11F0422F00F0214439C6067
:1003B00010BDFFF77DFFB4FA84F42D4BE4B25A6808
:1003C000C4F11F0422F00F0214435C60FFF756FFD4
:1003D000BDE81040FFF784BF264B984204D003F5D8
:1003E000043398420ED010BD0420FFF7A3FFB4FAE7
:1003F00084F41F4BE4B29A6EC4F11F0422F00F0282
:1004000014430DE00420FFF795FFB4FA84F4184B71
:10041000E4B29A6EC4F11F0422F0F00242EA04141E
:100420009C6610BD144B984204D003F504339842E7
:100430000ED010BD4020FFF77DFFB4FA84F40C4BC2
:10044000E4B21A6FC4F11F0422F0030214430DE05A
:100450004020FFF76FFFB4FA84F4054BE4B21A6F43
:10046000C4F11F0422F0300242EA04141C6710BDDC
:1004700000800C403004080040051400C0F3032342
:10048000013B70B50D46052B21D8DFE803F00312C0
:1004900006090C0F00230E4C0DE000230D4C0AE062
:1004A00001230D4C07E010230C4C04E000230C4CFE
:1004B00001E00C4C0023C0F3043613B11846FFF7DB
:1004C00039FF04F1047406EBC406B600356070BD54
:1004D00008800C4040800C4058800C4060800C40EC
:1004E00078800C4044800C4000F00F000138032855
:1004F0002CD8DFE800F00418210207207047154BC4
:10050000DB6A03F47053B3F5805F0AD0B3F5005F84
:1005100005D0B3F5006F0CBF042005207047022002
:100520007047032070470B4B9B6A03F00303013BAA
:10053000022B0DD8084A07E0064B9B6A03F00C0318
:10054000043B082B04D8054AD05C70470020704754
:100550000120704700800C40BC840000BF84000074
:1005600000F47810B0F5202F08B53CD019D8B0F5BC
:10057000802F2FD009D8002855D0B0F5003F56D194
:10058000FFF722FE2B4B9B682AE0B0F5C02F25D049
:10059000B0F5002F4BD10020FFF7D6FE254B9B6E08
:1005A0001EE0B0F5B01F2BD00DD8B0F5901F22D0B3
:1005B000B0F5A01F3BD10120FFF7C6FE1D4B1B6FFE
:1005C00003F0030323E0B0F5C01F22D0B0F5D01F25
:1005D00027D02CE0BDE80840FFF750BE00200BE01C
:1005E00003F00F0313E00020FFF7AEFE114B9B6EEC
:1005F000C3F303130BE00120BDE80840FFF7A4BEDE
:100600000120FFF7A1FE0B4B1B6FC3F30113D84072
:1006100008BD0948FFF768FF072802D0082802D064
:1006200005E0064808BDBDE80840FFF7CDBD002045
:1006300008BD00BF00800C4004001800809FD5005A
:1006400010B5042821D8DFE800F00C0911030600DA
:10065000012002230CE01020202309E04020802309
:1006600006E04FF480704FF4007301E0042008238B
:10067000064C29B1206222B1E26A1342FCD000E0AC
:100680002362BDE8104000F0D3B910BD00800C40DB
:1006900010B500F00F04012C03D04CD3032C22D949
:1006A00010BD0239032946D8DFE801F0020B050826
:1006B0000020042407E00220044604E00320012473
:1006C00001E00120032401210A46FFF7B9FFFFF7EB
:1006D000EFFD194B5C6200F0ABF9FFF7CFFDBDE811
:1006E0001040FFF7FDBD0139052924D8DFE801F0EE
:1006F00016030A232311012100200A46FFF7A0FF59
:1007000002230CE0012001460246FFF799FF012376
:1007100005E00A4B01221A60032300E00023064A89
:10072000022C916A0BBF21F0030121F00C010B4355
:1007300041EA8303936210BD00800C400808904397
:100740002DE9F041DFF880800401D8F808C0069D4B
:10075000079F089EA4441AB9D8F80C80444400E0CE
:100760006446DCF80CC0BCF1000F01D08CF8082006
:1007700057B1D4F808C0CCF3816CBCF1030F1CBF97
:1007800006FA0CFC674427603DB1A768BF0F032F32
:100790001CBF06FA07F7ED196560012505FA00F0A0
:1007A000094D0BB1A86100E0E8610AB1686300E09F
:1007B0002863A36823F47F5323F037030B4343EAF2
:1007C0000616A660BDE8F08100200C401A4B1B4ABB
:1007D00041F20C0112682DE9F0415F58174000D535
:1007E000FEE7D3F83880022607EA08050024EDB1B9
:1007F000EB0718D50121A1400F4B114A9B681160EE
:1008000003EB0413DB6873B1197AD3F800C081F0ED
:1008100001021A72BCF1000F05D00031204618BF4A
:1008200001215A68E0476D080134E0E7013E27EAFC
:100830000805DBD1BDE8F08100200C4000300C4001
:1008400008300C40F0B585B00A9C0F4601940B9C13
:10085000164600930294334601213A460546FFF7B7
:100860006FFF012303FA05F5014B9D6205B0F0BD52
:1008700000200C40104B10B59C688A6804EB0014F3
:10088000E2600C78012282400CB19A6300E0DA63E6
:100890004A6800F5886443F82420084B4A780344EA
:1008A00032B1012202FA00F0034C41F2080160501B
:1008B0009B001A6010BD00BF00200C406080E1105A
:1008C00010B50C4B09B19B6800E0DB681179D47856
:1008D000890441EA8431147803EB00109378A4076B
:1008E000527844EA037444EA826242EA03630B43A7
:1008F000836010BD00200C400F4B0120C3F8800026
:100900000E4BFF2200215960DA615A62DA625A63A3
:10091000DA63D86441F20C020948995041F20802A6
:1009200098500A4602F5886101320020082A43F8EF
:100930002100F7D1704700BF00E100E000200C402B
:10094000FF00008010B5012104460C48FFF796FD1A
:10095000FFF7D2FF0A4B0122C3F880211A60094B2E
:1009600041F20C024FF00041995062689A6022787F
:10097000520142F001025A6010BD00BF0013040092
:1009800000E100E000200C401A4B45F60E02D3F8BF
:100990008400C3F88420184A00F00100128802F491
:1009A000AA71196202F47051B1F5805F06D0B1F5F9
:1009B000005F08D0B1F5006F10D109E0D96A0906CF
:1009C000FCD5032108E0D96A8905FCD5042103E0A0
:1009D000D96A0907FCD50221064B5962D30702D414
:1009E000044B02221A6218B1024B0022C3F8842081
:1009F000704700BF00800C401C0A0020094B0A4AC7
:100A0000DB6A9BB21380094A116941F0040111614C
:100A100030BF08B1FFF7B8BF5B0501D4FFF72EBCAC
:100A2000704700BF00800C401C0A002000ED00E071
:100A3000024BDA6A024B1A80704700BF00800C40FC
:100A40001C0A00200729F0B5174C0DD88D000F2681
:100A5000AE4000FA05F5D4F8007127EA060646EA2A
:100A60000500C4F800010EE0A1F10805AD000F2655
:100A7000AE4000FA05F5D4F8047127EA060646EA06
:100A80000500C4F804010948084480000260C0F869
:100A90008030012303FA01F1034BC3F81C119DF8C8
:100AA0001430C0F80031F0BD0060004040088310F1
:100AB000F0B572B1012524248D4033B1444304F1D3
:100AC000804404F5C044256103E004FB00F61B4CA0
:100AD000A55124244443072904F1804404F5C0446B
:100AE0000CD88D004FF00F0C02FA05F60CFA05F544
:100AF000676827EA0505354365600EE001F180452A
:100B0000083DAD004FF00F0C02FA05F60CFA05F5A2
:100B1000A76827EA05053543A5606AB901242422A0
:100B200004FA01F150432BB100F1804000F5C040C0
:100B30000161F0BD014B1950F0BD00BF14600040D1
:100B4000036CDB0702D4436C1942FCD170470000F0
:100B500038B50446154661B90D4B984205D003F5EA
:100B60008063984212D10B4800E00B48FFF7F8FC75
:100B700001464901B1FBF5F12039C90047F6F87586
:100B80000D4020460421FFF7DBFFE56038BD00BFC4
:100B900000400840401516004005140070B50D4691
:100BA00002210446FFF7CCFF0A236360666C002E27
:100BB000FCD10123236423682A7B23F01C03134305
:100BC0006A7B20461343AA7B696813432360AA68A3
:100BD000FFF7BEFF2B786360266470BD436C002B6B
:100BE000FCD101220264EA22426040F2F972036001
:100BF000C3600361436183634263C363436503640A
:100C00007047000070B504461E461546D2B1036811
:100C100023F440730360036843EA0623036019B9B1
:100C20000948FFF79DFC0146084BA1EB85019A5D41
:100C3000236855439B07B1FBF5F202D5002A08BF94
:100C40000122226170BD00BF10810200C884000033
:100C500000224263094A38B502634A7800F10475FC
:100C60006B0182F001020C465A604968237BA2683E
:100C7000FFF7C8FF23786D012B6038BDCFFF01005F
:100C8000964BF0B5984240F02481954B98681E78B9
:100C900059881A79914FBC6A3D4614F4C06F0CD044
:100CA000A5058F4859801A7101D5FD2203E064051E
:100CB00040F1FF80FE224270FBE0082E00F2F5803A
:100CC000DFE816F009002100460055006E008000A4
:100CD000A700BC00E500598041881A710288C80647
:100CE00005D5120A02F0060242F0F00205E002F019
:100CF000FE028F0748BF42F00102784901201870B8
:100D00004A624860D7E0260600F18580640601D477
:100D100001204AE040253D634588704CEE0606D52B
:100D20001A7102221A70027859806262C3E0AF071A
:100D300040F182801A7100EBC20212895980012AA7
:100D40004FF00701197040F0B68008226260B2E0EF
:100D5000260660D4640601D4022026E040243C63C9
:100D6000448814F0020F14BF0326052692E7598029
:100D700041881A710288C80643BF120A02F00602AF
:100D800042F0F00202F0FE024F074FF0040119702A
:100D9000524948BF42F00102012048604A628AE09D
:100DA000260638D4640604D40420187059801A71B9
:100DB00081E040243C63448867073DD51A7159801F
:100DC000072277E000EBC20425898D4218D84188BC
:100DD000013201F00404A4B2D2B214B100210326FE
:100DE00058E711F0010106D05C801A7108221A70D0
:100DF00002213A4A40E0012A7FF64CAF5980F4E7DD
:100E00001A716268481C515C344A5880516206224B
:100E100050E026060AD51A71802259802A63FF22E3
:100E20005A7008221A7002226A6044E0640601D4F3
:100E30000620BAE740243C6305262BE707265980A5
:100E4000A106274D1E701A7135D500EBC20211891B
:100E50006C8822488C42C06903D25268661C6E803E
:100E6000105558881D4A884208D3012904BF08211B
:100E7000516008211970022151601CE004240129ED
:100E8000546018D00139884215D10821F4E70820B0
:100E90001A71E205187059800DD5104A4FF480710F
:100EA00011630F4A0921117005E01A71FB22598064
:100EB0005A7009221A701978094A09290BD1074872
:100EC0000021416392F90100012808BF5170587850
:100ED00002E0FC2000E0012040B2F0BD00A0004094
:100EE000200A0020154B984224D18368DB0744BFB9
:100EF000202343604B889A0701D50A89D2B158074D
:100F000001D50B8AB3B10E4B002201201A711A7061
:100F100058705A809960094BC0225A609A6A0748F3
:100F2000920648BFDA69074A1A634FF4FC625A63B3
:100F3000FFF7A6BE6FF00300704700BF00A000409F
:100F4000200A0020CFFF0100034B1A6AD20702D407
:100F50005A6A1042FCD170470000084038B50D466F
:100F600010B1012803D038BD0220044C01E0044C2C
:100F70000420FFF7E9FF256038BD00BF08000840E6
:100F80000C00084010B504460120FFF7DDFF4FF0CC
:100F900086431C6010BD0000437810B504780BB187
:100FA00044F0020483780BB144F004040120FFF7FD
:100FB000CBFF014B1C6010BD000008400A234360BA
:100FC0004B780A781B0143EA02638A781343CA7894
:100FD000120402F4F81213430A79120202F4FE42D8
:100FE00013434A790AB143F00803036070470000D5
:100FF0008A78022330B54360062A41D8DFE802F040
:1010000004101927404037002D4C436B656823F4CA
:10101000FE4323F07F0305F4FE452B43646813E091
:10102000436B274C23F4FE43656823F07F03646819
:1010300015E0234C436BA56823F4FE4323F07F03A4
:1010400005F4FE45A4682B4304F07F0416E0436BCF
:101050001B4C23F4FE43A568A46823F07F03C4F36C
:1010600006442343C5F3066443EA042307E0144B14
:10107000446BDB6824F07F0403F07F032343436366
:101080000B784C781B0743EA045343EA02420B797E
:1010900042EA0322CB7842EA03138A790AB143F089
:1010A0008073CA790AB143F004034A790AB143F064
:1010B00002030A7A0AB143F00103C36030BD00BFE6
:1010C000B081E00F0C4B10B59842044605D8B0F53E
:1010D000FA4F38BF4FF4FA4400E01C4619B90748EC
:1010E000FFF73EFA0146631E1944B1FBF4F000B16C
:1010F0000138C0B210BD00BF405DC60010810200C3
:1011000008B528B90748FFF72BFA002808BF0120C7
:10111000054B00F5742000F23F20B0FBF3F00138DE
:10112000C0B208BD1081020040420F00064B1A6990
:1011300002F03F0202709A69DB6902F0F002C3F329
:101140000313134343707047D0FF0FE0614B37B573
:101150001B681B0E10D1604B1A6822F070021A60D7
:10116000A3F57F532C3B1A6822F060421A601A687C
:1011700062F060621A6001E0032B0BD8574B1A68CB
:1011800022F4FC521A60564A0023136053609361A4
:101190001362936301A8FFF7C9FF9DF80430012B88
:1011A0000FD19DF805302BB94D4B1A6842F0020261
:1011B0001A6001E0012B04D84A4B1A6842F0010280
:1011C0001A60494B1A68494B9A4220D8454B1A6815
:1011D00042F490421A60464A106811681568146813
:1011E00005F4FE4204F07F04224301F07F0142EA4D
:1011F0000141C0F306203F4A41EA006111603E4AC6
:1012000011683E4A11601A6822F490421A60012166
:101210000A460020FFF714FA39480221FFF738FA8E
:1012200038480221FFF734FA37480121FFF726F941
:1012300035480121FFF7A6F834480121FFF71EF9D0
:1012400033480121FFF71AF901213248FFF716F957
:1012500000F094FE4FF4165000F006F92E4800F00E
:10126000E9FD2E4800F03EFD00F0D8FB01F020FB28
:10127000C0F55A6014230C30B0FBF3F000F0DAF93B
:1012800033222748274900F07FFE0220264900F03C
:101290003DFB03202549264A264B00F037FB01F091
:1012A000F9F900F051FD00F089FF234B1A7872B96B
:1012B000224B1B889BB233B1214B1A6922F00402E6
:1012C0001A6130BFEFE70120FFF798FBEBE7002240
:1012D0001A70E8E7FC81E00F0CA00C4020600C4085
:1012E00040800C4044800C40F081E00FFFB98A4CF4
:1012F000B481E00F34200040C881E00F2C40004052
:10130000020006000300120030040800002304005D
:101310001081020000C202002C8A00001C8A00001A
:10132000348A0000CC840000308700004187000030
:10133000228D0000168D00000013002000110020F7
:1013400000ED00E00FB400B5A1B022AA52F8041BD2
:1013500002A8019203F09CFD02A800F0E5F821B07C
:101360005DF804EB04B07047034B186818B10138FE
:10137000186000B962B670472C0A002013B572B627
:10138000274B284C1A68511C1CBF01321A60237865
:1013900023B102B0BDE81040FFF7E6BF0123237080
:1013A000FFF7E2FF204B21491A880B8892B2D31A2B
:1013B0009BB20BB9237031E018B2002806DA0B8813
:1013C0004FF48062C3F580639BB208E0B0F5806F94
:1013D00005DD0A884FF4806302F5806292B20888C6
:1013E0001349184480B20880088880B2B0F5806F35
:1013F00004D30888A0F5806080B208800D490120E0
:101400000A440D491BB20A610C4A013B10600022DC
:101410000193009201461346FFF714FA02B010BD83
:101420002C0A0020300A0020340E0020360E002046
:10143000320E0020300A0020001200203400084341
:10144000054A00231360054A1188054A89B21180B4
:10145000044A1370FFF792BF34000843320E002095
:10146000360E0020300A002038B5012105461E48FE
:10147000FFF704F81D4C1E480121FEF7FFFF012174
:101480001C48FEF7FBFF2046FFF7A8FB1A49204641
:101490008D60FFF783FB022504210A466565032062
:1014A0000123FFF705FB154B154A0024DA601C6188
:1014B0001448FFF747FA01201349FFF7DBF9012031
:1014C000124A0146FFF7FCF9114A124B5A61124ABF
:1014D00041F20C03D550114B01221A60104B1C80B5
:1014E000104B1C8038BD00BF0013040000400840B2
:1014F00000C2020040051400100000200413002068
:101500004114000008000020200000202C000020D2
:10151000284008400012002000200C4000E100E0BC
:10152000360E0020340E002030B500210278002A4B
:101530002ED0194B194C1D8824882D1BADB2ACB28E
:1015400014F4004F1CBF05F58064A4B224B240F22D
:10155000FE35AC421CDC124C2578124C45B10A2AEF
:1015600006D129B91A880D2192B2A154012104E0B3
:101570001988013089B2625400211A88013292B26E
:10158000B2F5806F1A80D1D3034B00221A80CDE7C9
:10159000BDE83040FFF7F2BE340E0020360E0020CA
:1015A00031000020310A00202DE9F0412024DFF82D
:1015B00044804FF01133C8F898300C4F0C4B012584
:1015C00000261D605E603D6000F0DCFAD8F8AC30AB
:1015D0003E601B0406D500F0D5FA013CE7D1284651
:1015E000BDE8F0813046BDE8F08100BF0C180C4228
:1015F00010180C420060004038B50546FFF7D4FFD4
:10160000044680B9084B4FF04432C3F89820074A8B
:101610002D0210605060C3F89C50054D01232B60D3
:1016200000F0B0FA2C6038BD0060004010180C4289
:101630000C180C42132803DD3F28A8BF3F2000E010
:101640001420014B186070473400002010B50520AD
:10165000032104220023FFF72BFA04210A46052068
:101660000023FFF725FA0520014604220023FFF797
:101670001FFA1B4B4FF47F420821C3F8A42000201F
:1016800004220123FFF714FA642000F053FA154CEA
:101690003920FFF7B1FF1420FFF7AEFF20680011DB
:1016A00040F05400C0B2FFF7A7FF6D20FFF7A4FF82
:1016B000206800F00F0040F07000FFF79DFF382019
:1016C000FFF79AFF0C20FFF797FF0120FFF794FF29
:1016D0000620FFF791FF044B01221A7010BD00BFD6
:1016E00000600040340000203C0E0020014B1860D8
:1016F000FFF7ACBFC00E0020084A00231370084A51
:101700004FF044311360074AC2F8981006490B6045
:101710004B60C2F89C30054A136070473C0E0020B5
:10172000A0010C420060004010180C420C180C4242
:1017300038B50D4B05461B78ABB1FFF735FF0446B6
:1017400088B90A4A4FF04433C2F89830084B094927
:1017500018602D0201230B60C2F89C50064D2B60CF
:1017600000F010FA2C6038BD3C0E002000600040F4
:1017700010180C4214180C420C180C4210B5441EE0
:1017800014F8010F10B1FFF7D3FFF9E710BD000007
:10179000054B1B7833B100EB811060F07F00C0B2C5
:1017A000FFF72ABF704700BF3C0E00202DE9F04F25
:1017B0004C4B9FB01B7806460C461546002B00F09C
:1017C0008E80072801D9484820E0084602F070F8CA
:1017D0006E2801D9454819E02146454C2A466846FD
:1017E00003F056FB236806EB4607DA19D85D5178FB
:1017F000FFF7CEFF684602F05BF8D4F80080762849
:1018000008EB070A9AF8025004DD3A483146FFF720
:1018100099FD64E018F8073043B9A84206DD00AB33
:10182000E81F1844344901F0E5FF28460446AC425D
:10183000A14604DA20230DF804300134F7E79AF8C2
:10184000013018F8072003EB0313DFF8B0B09F183E
:101850005F4438466946224602F05AF82023062E95
:101860008BF8103001D0032E2ED100263E55234890
:10187000234901F0A1FE804660B12049204801F0D3
:10188000B9FF1E48FFF750FE1E48FFF74DFE1E4BE6
:101890001E6019E0AC4217DD1B4E00A93768684690
:1018A000E41B3944224602F033F8EB1E9C42AABFE7
:1018B0000137C6F800803760AC42A14604DA202325
:1018C0000DF804300134F7E71EABA945B8BF4D460B
:1018D0001D446846002305F8783CFFF74FFF1FB012
:1018E000BDE8F08F3C0E00204C8A0000738A000097
:1018F000C00E0020A08A0000CC8A00003800002022
:101900003D0E0020578B0000380E00200EB403B5AA
:1019100003AA52F8041B0192FFF748FF02B05DF8DA
:1019200004EB03B0704700001049114A0346002041
:10193000126830B508600F490C680F49086800FB51
:1019400004200E4A11680E4A21B161431588B1FB8B
:10195000F5F108440B4912884968B1FBF2F21044D2
:10196000024A0121116003B1186030BD80030043B9
:10197000CC0E0020C80E0020D00E0020D40E002077
:10198000C40E002000000840002208B5026201F0E9
:10199000BFF9014B186008BDCC0E0020426A094B0C
:1019A00000211A80084B92B2196008494FF08073E9
:1019B00093FBF2F30B6053430549C3F180730B6053
:1019C000FFF7E2BFC40E0020C80E0020D00E00209A
:1019D000D40E0020024B186801301860704700BF19
:1019E000C80E0020014B1868704700BFC80E0020C9
:1019F00072B6044B1A68511C1CBF01321A60186879
:101A0000704700BF2C0A0020034B186818B101383A
:101A1000186000B962B670472C0A002030B5164D28
:101A20008DB002AC0FCD0FC40FCD0FC495E80300ED
:101A30000E2384E80300079302A84FF400430B939E
:101A4000FFF7ACFF00230CA800F82C3D8DF8053003
:101A50008DF80630FFF7A0FA084B0120DA6942F052
:101A60000302DA61FFF78EFA054B4FF08072C3F87C
:101A700080211A600DB030BDD48A000000000840FB
:101A800000E100E010B500230C490A6893420C4ABB
:101A900009DC02EBC3014C681CB942F833404860D2
:101AA0000AE00133F0E70B680024013342F83340C9
:101AB00002EBC30250600B60184610BDD80E002028
:101AC000340F0020014B43F830107047340F0020D2
:101AD000024B002243F83020704700BF340F002033
:101AE000014B1860704700BFDC0E002010B5094C98
:101AF0004FF47A726368C003B0FBF2F1194401201D
:101B000021F07F41FFF72AFA0423A361024B01224F
:101B10001A6010BD0000084088030043034B0022F8
:101B20001A60034B04229A61704700BF8803004388
:101B300000000840F8B5124E0446FFF759FF7768D9
:101B4000FFF750FFE4030546FFF75EFF4FF47A739B
:101B5000B4FBF3F43C4424F07F44BC4208D9084B66
:101B60005B68A3420BD2FFF73DFFA842F7D0F8BD58
:101B7000FFF738FFA842FBD07368A342FCD3F8BD3F
:101B800000000840054B5A6859689142FCD0034A4E
:101B9000526859689142FCD0704700BF000008406D
:101BA000014B1860704700BFE00E002037B5A0B1B0
:101BB000FFF71EFF0020FFF7B7FE02AB43F8040D4E
:101BC000184600F03FFF084C05460FCD0FC40FCD5F
:101BD0000FC42B682360FFF717FF044B1B6803B18A
:101BE000984703B030BD00BF68130020E00E00200E
:101BF000F8B5344C2369E5691D40E90703D5FFF7C3
:101C0000E9FE0123A361AA0702D46B0758D54DE072
:101C1000A168002001F5004121F07F41FFF79EF906
:101C20000223A3610120FFF7C1FF0024264B1B689C
:101C30009C4212DC254B53F8342062B153F8342017
:101C4000013A43F8342032B903EBC4035A6812B1A5
:101C50005B68204698470134E8E71D491D4B4A68F8
:101C600093F900000E469042CFD01A7000241A4912
:101C700011F83430B3B1E2008B189F7870687FB2EE
:101C800087420FD1587840B2013005D05878104BB8
:101C900040B29B68984205D18B185A6812B15B68B4
:101CA0002046984701340A2CE1D1AEE70B4B0022C5
:101CB0001A60044B04229A61094B1B6803B19847D0
:101CC000F8BD00BF00000840D80E0020340F0020EF
:101CD00068130020BA000020E40E002088030043AF
:101CE000DC0E0020144B00221860144B4FF6FF71DD
:101CF000C3F81021C3F80821C3F80C21C3F81C1144
:101D00000F4B08301A60083030F8102C196812B1E7
:101D10000A431A60F7E7094AC2F808111B68C2F8BB
:101D20000C31084B0222C3F880211A604FF4007274
:101D3000C3F880211A607047880F002000600040BF
:101D4000840F002000E100E0044B4FF6FF72C3F85F
:101D50001C21034A1268C3F810217047006000403C
:101D6000840F00202DE9F843234BD3F80480A3F51A
:101D7000F423D3F81421D3F8104114403AD0C3F817
:101D80001C411E4B1B681C40002C33D0B4FA84F25B
:101D9000D2B2C2F11F060127B740072E24EA07047A
:101DA000174B05DCD3F80021B30022FA03F305E05A
:101DB000D3F80431C2F117029200D34003F00703B5
:101DC00024225A430F4B9B581F420F4B0CBF4FF01E
:101DD00000094FF001091D68083535F8083C002B53
:101DE000D2D03B42F8D055F8043C304649464246F2
:101DF0009847F1E7BDE8F88300000840840F002011
:101E0000006000401C600040880F0020FFF7AABF60
:101E1000FFF7A8BF10B5054C23685888FFF766FE8A
:101E20002368034A5B681078984710BD900F002024
:101E3000940F002013B51A4B012118601948FEF7C2
:101E40001DFB00200024034605210122FEF730FE81
:101E500020462246234600940521FEF7F3FD204646
:101E6000234604210122FEF723FE20462246234674
:101E700000940421FEF7E6FD2046234603210122BB
:101E8000FEF716FE20460094032122462346FEF765
:101E9000D9FD054802B0BDE81040FFF721BE00BFE4
:101EA000900F002000C20200151E0000042838B563
:101EB00005D0052806D0032823D1072406E00446D0
:101EC000022003E0012481F0010120460D4D2B7812
:101ED00041B1834215D1FFF721FE02340023E4B261
:101EE0002B7009E06BB9084B621C1A70074B287005
:101EF0001B681888FFF7FAFD044B20461B685B68D7
:101F0000984738BD8C0F0020940F0020900F0020C0
:101F1000044B1B7813B1044B00221A80034B01229F
:101F20001A707047BC00002090130020001300209E
:101F3000014B01221A7070479C0F002008B5064B18
:101F4000186818B1054B01221A7001E0FFF7E0FF95
:101F5000034B01221A7008BDA00F0020A80F00201B
:101F600000130020034B1B781BB1034B01225B01C4
:101F7000DA617047950F0020921310210320002191
:101F800004220123FEF794BD38B5164B164C196098
:101F9000164B05461A602368013303D11448FFF736
:101FA00071FD2060134C2368013306D11248FFF7FE
:101FB00069FDF0212060FFF785FD104C2368013397
:101FC00003D10F48FFF75EFD20600E48FFF7E8FDE4
:101FD0000D4A012313800D4A28461370BDE838408E
:101FE000FFF784BB980F0020C4000020AC0F002036
:101FF000111F0000C8000020311F0000C000002099
:102000003D1F0000651F000090130020950F002069
:102010003A4B4FF400421B7870B59A40431E082B90
:102020006BD8DFE803F0054A3A10143A25283A0045
:10203000334B1B78002B40D0324B00221A60324BBE
:1020400001221A7039E02E4B1B78002B35D02F4B14
:102050002C491E682E4B1D680B680133B342A8BF84
:1020600000230C2404FB035464682242F5D012E0E0
:10207000234B1B780BB3254B22491E68244B013E92
:102080001D680B68013B48BF33460C2404FB035416
:1020900064682242F6D00B600FE01E4B1868451CA6
:1020A00002D07821FFF70EFD1B4B1868441C24D08A
:1020B000BDE87040F021FFF705BD811E174B484277
:1020C00048411870164B1A7822B90E4B196802292C
:1020D000C8BF1A60134B70221A800E4A1C46106843
:1020E000421C01D0FFF7F4FC0B4B1868431C01D0D5
:1020F000FFF7EEFC22880C4B1A8070BD34100020D4
:10210000950F00202C100020BB000020AC0F0020F9
:10211000980F0020C4000020C80000209C0F002061
:10212000941300209013002092130020011E03DB63
:10213000074B1B68994202DB0648FFF703B9064BC1
:10214000064A196070231380054A1380704700BF48
:10215000AC0F0020FC8A00002C10002090130020FF
:10216000921300200EB4431E012B17B51AD8104A43
:10217000012814BF032402240123520142F8243011
:102180000C4A520142F8243000F018F806AA204602
:1021900005990192FFF70AFB074B1868431C01D011
:1021A000FFF796FC03B0BDE8104003B0704700BFD6
:1021B0009013102192131021C40000202DE9F04F3C
:1021C0009A4B95B01B7803F0FF029BB1984B1C789B
:1021D000002C40F00682012096491870FFF7C2FFDC
:1021E00002209549FFF7BEFF9448FFF7ABF8944BE8
:1021F0001C60F6E1934B197811B11A7000F012FBD4
:10220000914C924B22681968914206D01A60904A0C
:102210000123520193618F4A13708F4A137863B17F
:102220008E4900200B68107023B18D4A0860106839
:10223000984702E01846FFF76BFE8A4B8A4D1E88CE
:102240001F462B78002E00F0C8811BB9FFF7FEF95E
:1022500001232B70854B39881A88114200F0C18107
:1022600003F188734FEA4319814B4D465B01079395
:1022700000262B68F0B2002B00F0A8810799C9EB6B
:1022800001035B59002B00F0A18100232B6007287C
:1022900000F29C81DFE810F0080008009A019A0122
:1022A0000A00140025008B0163497DE1714B0C216C
:1022B0001B68714A4B43126804207049D2580DE0E4
:1022C0006C4B6D4A1B6812680C2101FB03235A6892
:1022D000511C00F07B816A490520D2B2FFF716FB42
:1022E00074E1DFF890A14FF00C08DAF8003008FB39
:1022F00003F8614BCDF814801B6813EB08080693B4
:1023000000F050815F4F112387F87730D8F8040030
:10231000BB46431C14D0C0F30723042B08DD1A4628
:102320000AA9049300F0EEF90028049B09DA39E1C8
:1023300009A900F05FFA0028C0F23481099B00E08F
:10234000002398F80820112A00F22C81DFE812F00F
:102350001200170021002D005200390064006700B0
:102360006A00BC00D700DD00E100E400E800EB00FB
:10237000F100FE0043484449444A454BF6E0454BD2
:1023800040481A780AB94449A4E0444B44491B68C0
:10239000ECE000F08DFA4FF47A73864690FBF3F28E
:1023A0004049384803FB12E3E0E09DF828B0354887
:1023B0000DF129015A4601F0ABFA002307F80B3062
:1023C000D6E09DF82880002343450BDA03EB430059
:1023D0000AAA0133D25C58443349049301F0C6F889
:1023E000049BF1E708EB480C0BEB0C03002203F80D
:1023F000012CBDE098F805202248022A05D0032AC6
:1024000005D0012A05D129498FE029498DE02949C4
:102410008BE02949099A89E01A48284985E019483A
:10242000274982E0174827497FE000BF9C0F002022
:1024300028100020298B0000588B00003A8B0000E8
:10244000000F0C42BB00002068130020A40F0020E6
:102450009213102100130020A80F0020A00F0020CD
:102460003010002090130020950F002092130020C0
:10247000901310212C100020980F0020798B000061
:10248000598B0000B00F002041870000228D000012
:10249000168D000094130020608B0000981300201C
:1024A000718B00007C8B00008D8B0000938B0000F3
:1024B0009A8B0000A18B0000A88B0000B08B00005D
:1024C000B48B0000B98B00004FF6FE72934204DD1E
:1024D0004548464901F08EF94AE04FF4B462444958
:1024E00093FBF2F201FB02313C236FF03B0091FBC6
:1024F000F3F300FB03113C4800913E4923E0022224
:1025000039483D4993FBF2F210E037483A495A0006
:102510000CE03548394908E0334839491AB205E03A
:102520003148384901E0304837491A4601F01EF871
:102530001EE003F01F015A1200912B48334902F2AA
:10254000BC72C3F3431301F011F811E0A3F6AC22FF
:102550004FF00A0E82EAE27CACEBE27C9CFBFEF3DD
:102560000EFB13C320482A4992FBFEF200F0FEFF47
:1025700097F87730112B06D0069B059A2548995875
:10258000FEF7E0FE0EE02449DAF800300A680C217C
:1025900001FB03235B682149013314BF062003209C
:1025A000114A9BE61E490620FFF7B0F90EE0E268EB
:1025B00023690092A2680720019262681949029279
:1025C0002268013303926269FFF7A0F90136082EF1
:1025D00005F104057FF44DAE03E013B1FFF78CF86D
:1025E0002E7015B0BDE8F08FB00F0020BF8B00003B
:1025F00060FAFFFFC98B0000D88B0000DE8B000063
:10260000E48B0000EA8B0000F18B0000F98B0000E6
:10261000088C0000108C0000980F0020798B0000BF
:102620003F8C00004A8C00002DE9F041114D002341
:102630002B70114B044618689046421C0E461F46EC
:1026400001D0FFF745FA0D4B1B788BB10C4B1E6088
:102650000C4BC3F800803CB13868431C08D02146BD
:10266000BDE8F041FFF72EBA074A01232B70137023
:10267000BDE8F081A80F0020C0000020950F0020C9
:10268000A00F002030100020001300200120FFF7D1
:102690004DBD000008B510480121FDF7EFFE0F48C1
:1026A0000121FDF7EBFE01210B4600200A22FEF777
:1026B000FFF9002001460A220123FEF7F9F9084834
:1026C000032383630749FEF7C3FA074B4FF4807275
:1026D000C3F880211A6008BD00C2020000F20200A7
:1026E00000A00040D000002000E100E008B5034851
:1026F000FEF7C6FA024B187008BD00BF00A00040EC
:10270000351000202DE9F041C0F307239A4286B02E
:102710005BD3304B8DF800001B780491ADF804308A
:102720000423ADF8063000AB02932B48012301A926
:10273000ADF80C30ADF81420FEF7D4FB274B187021
:102740001A781C4612F0800F3CD1254BD3F8048038
:1027500025786DB2012D34D1224B1A6922F0040282
:102760001A6130BF1E4E7368C8EB030323F07F432A
:10277000B3F5804FECD91C48174FFEF7D5FE202348
:102780007B606420FFF7D6F9184BDA69920715D4FD
:102790005D610223BB637268144BDB699B070AD43B
:1027A0000F4B5B689B1A23F07F43B3F5203FF3D9AF
:1027B0000F48FEF7B9FE084B03229A63F6232370F5
:1027C000C6E7064B187840B201E06FF00A0006B089
:1027D000BDE8F0819413002000A0004035100020D7
:1027E0000000084000ED00E0808C00000060004028
:1027F000AE8C000037B50C46062269460546FFF749
:1028000081FF68B964B1C5F30723013B0246591C37
:1028100005D01DF80310013B41EA0222F7E72260D0
:1028200003B030BD2DE9F0410024184BE70013F848
:102830003450174E98466DB1002116483570FFF799
:10284000D9FF011E06DA4B1C02D01348FEF77AFDB1
:102850000134EAE708EB07035A6835705B780F4DDF
:102860000F4C104800212B702260FFF7C3FF002897
:102870002B4603DB0C4A226002222A7003200B49FC
:102880001A78BDE8F041FFF7CFBE00BF688C0000AA
:102890009413002000020300D58C000034100020A7
:1028A0009813002059020200FC8C00008D260000C5
:1028B00070B5234D86B02B78A3B3002409261F23BF
:1028C0003246214603A88DF807308DF804408DF874
:1028D00005408DF806408DF808408DF8094000F05D
:1028E000BDF801211748FDF7C9FD2046FEF708FC99
:1028F00021468DF807001448FEF7E4FB01A98DF886
:1029000008001248FEF75AFB0523104803A98DF86A
:102910000E408DF810608DF80F408DF80D30FEF7E9
:1029200067FB2C70094B01225A609A68D207FCD4CD
:10293000064B40F6A6605B6A5843000B06B070BDBC
:10294000CC00002000E20200C0CF6A00002000405E
:10295000074880470749084A084B9B1A40F30580FF
:10296000043BC858D0503FF7FBAF05480047000074
:102970009D020000D08F000000000020A009002070
:1029800055010000FEE7FEE7FEE7FEE7FEE7FEE793
:10299000FEE7FEE7FEE7FEE7FEE7FEE7FEE7FEE70F
:1029A000FEE7FEE7FEE7FEE7FEE7FEE7FEE7FEE7FF
:1029B000FEE7FEE7FEE7FEE7FEE7FEE7FEE7FEE7EF
:1029C000FEE7FEE7FEE7FEE7FEE7FEE7FEE7FEE7DF
:1029D000FEE7FEE708B50021044602F06FFA044B5B
:1029E0001868C36B03B19847204604F0FFFD00BF91
:1029F0002C8D000070B50F4E0F4D761BB61007D012
:102A0000043D0024013455F8043F9847A642F9D10B
:102A10000A4E0B4D05F046FD761BB61008D0043D5E
:102A20000024013455F8043F9847A642F9D170BDFF
:102A300070BD00BF94090020940900209C0900206B
:102A400094090020024B19687C3100F003B800BFE4
:102A500008050020002200F0D5BB00BFF0B48407B9
:102A600043D0541E002A3ED0CDB2034603E0621E7E
:102A7000002C38D0144603F8015B9A07F7D1032CD9
:102A80002AD9CDB245EA05250F2C45EA054515D9C9
:102A9000A4F110073F0903F1100606EB07161A46CA
:102AA000156055609560D5601032B242F8D104F0DF
:102AB0000F040137032C03EB07130DD91E462246E2
:102AC000043A032A46F8045BFAD8221F22F00302D4
:102AD0000432134404F003042CB1C9B21C4403F8BB
:102AE000011BA342FBD1F0BC704714460346C6E766
:102AF0002DE9F047016882B03B29044600F2C0800E
:102B000041683B2900F28F80A168172900F29A8062
:102B100025690B2D00F2A68063699F0734D17A4A9C
:102B2000D91782FB03066420C1EB661100FB11314B
:102B3000002968D0E2681D26002A744F29DC294646
:102B4000DFF8C4C164254FF4C87808E0012B00F019
:102B5000A48057F8230019460244002A39DC4B1E92
:102B60000029F3D161694B1E9E07636140F0988094
:102B70008CFB0306D817C0EB661005FB1033002B47
:102B800000F091801D268CE01C26E2685F4F002A31
:102B9000D5DDDFF874814FF0000C4FF064094FF47D
:102BA000C87A6B1C002107EB85050AE06858904243
:102BB000C0EB02020FDA0C2BE26023610ED001336E
:102BC0000431022BF2D1964205DA921BE2602361B6
:102BD000F5E72361E26002B0BDE8F0876169C4F8FF
:102BE00010C04B1C9807636102D01C260025D8E753
:102BF00088FB0305D817C0EB651009FB1033002BC9
:102C00005FD01D26F2E703F26C7382FB0312D91723
:102C1000C1EBE2124FF4C87101FB1233002B0CBF61
:102C20001D261C26B1E73C22684602F0C5F9A268C1
:102C30000099019B1144002BA1605FDB17296360A1
:102C40007FF666AF1822684602F0B6F99DE80C00E0
:102C5000E168002B0A44E26041DB2569A3600B2D8B
:102C60007FF65AAF29460C22684602F0A5F99DE886
:102C700028006269002D1344636135DB25614CE750
:102C80003C22684602F098F99DE80C006168002B30
:102C9000114461602DDB236033E7304619465BE762
:102CA0001C260B2355E701F26B718CFB0130CB170F
:102CB000C3EBE01308FB131100290CBF1D261C26D3
:102CC000EFE701F26D7188FB0130CB17C3EBE01326
:102CD0000AFB131100290CBF1D261C2686E718339A
:102CE000013AA360E26013E70C35013B25616361A3
:102CF00013E73C3301392360616002E73C3301395B
:102D00006360A16001E700BF1F85EB51608D00008B
:102D10002DE9F84F064603F03FF907463046FFF726
:102D2000E7FEC64C336972683568F068C2EB021280
:102D3000B16854F8234005EB82054FF4616C01380B
:102D4000012B0CFB015C0444756902DDA80700F04F
:102D5000BF8005F51C53103344F620629342F461A2
:102D600000F24681462D00F3898051D0452D4CD08C
:102D7000B348452340F26D194FF0640E4FF4C87804
:102D80001EE080FB03A14FEAE37BCBEB61110EFB5E
:102D9000113103F26C724FEAE27A002940F00781A8
:102DA00080FB02B1CAEBE11A08FB1A22002A0CBF11
:102DB0004FF4B7724A46013BAB42C2EB040408D061
:102DC0009A07DED0013B40F26D12AB42C2EB040425
:102DD000F6D1AB0719D19A4BEA1783FB0510642192
:102DE000C2EB601201FB1252002A40F0F78005F29C
:102DF0006C7283FB02A3D117C1EBE3134FF4C871CC
:102E000001FB1322002A00F0E98040F26D13E41A5E
:102E10008C4B03FB04C802F01DF88B4B1B68002B86
:102E200000F0C1807069326A7B6800F26C70012A20
:102E3000B4BF92464FF0010A834259D000F016F910
:102E4000002855D1D146B9F1010F40F0AD80FB6BA0
:102E5000984402F001F87D4A043484FB0223E2170F
:102E60002344C2EBA303C3EBC303E31A48BF0733F6
:102E7000C6F82090B3614046BDE8F88F70484623FD
:102E800040F26D194FF0640E4FF4C8781BE080FBE0
:102E900003B14FEAE37BCBEB61110EFB113103F27F
:102EA0006C724FEAE27A01BB80FB02B1CAEBE11A15
:102EB00008FB1A22002A0CBF4FF4B7724A460133AE
:102EC000AB421444A4D09907E1D040F26D12F6E76A
:102ED0005B4BEA1783FB05106421C2EB601201FB18
:102EE0001252002A66D0013433E74FF4B772E6E796
:102EF000B96B386AFB6BFA69C0EB0109C845C3EBD3
:102F0000020202DBC91A88459CDB3968002960D0BF
:102F1000904566DA4FF00009BAF1000F93DB89EAB9
:102F20000A0ABAF1010F8ED1C31AB9F1000F00D10C
:102F30005B42326830461A4432609844D6F80CA09E
:102F4000FFF7D6FDF368B3EB0A033FF47CAF012B28
:102F50007EDD4FF0FF33F2691C449B184FD4AA0763
:102F60004AD1374AE91782FB05AE6420C1EB6E11E6
:102F700000FB115100296FD105F26C7582FB05B27F
:102F8000E917C1EBE2124FF4C87101FB125540F290
:102F90006D12002D08BF4FF4B7729A42D8BFC2EB32
:102FA0000303F3614FE799463B6A984451E74FF4B6
:102FB000B77200E705F26C7283FB02A3D117C1EB75
:102FC000E3134FF4C87101FB1322002A7FF4C1AE52
:102FD00089E7904505DB4FF001099DE74FF4B77392
:102FE00015E7C845ACBF4FF000094FF0010993E762
:102FF0004FF0FF30BDE8F88F40F26D12CDE76B1E49
:1030000099072CD10E4AD91782FB03BE6420C1EB6D
:103010006E1100FB11332BBB05F26B7582FB0502B1
:10302000EB17C3EBE2134FF4C87202FB135540F2E7
:103030006D13002D18BF4FF4B673B2E7308D00004A
:103040001F85EB51805101003810002093244992D4
:10305000981CD8BF01237EE74FF4B7729DE74FF469
:10306000B6739EE740F26D139BE700BF2DE9F04F6A
:1030700083B0044602F090FF40F2B1739C420646D2
:1030800040F398805B4BE01783FB04276FF4F662F4
:1030900004EB0209A4F26D716FF4C86C83FB012587
:1030A0004FEAA90904EB0C02A4F2B278C0EBE71CCA
:1030B00040F26D1A4FF4C87B0AFB08980BFB1C4BBF
:1030C00083FB0293C0EB6717642000FB1747C91707
:1030D000A1EB6511D2178844C2EBE3137460DBF1F6
:1030E000010B04F00304DFF818C1019438BF4FF05E
:1030F000000B984434460025BA46237A4A2B5DD00B
:10310000442B6FD0019A002A4ED05B465800E768E6
:103110001844394B012F03EB001066DDBF00A0F10E
:103120000809B944031F414653F8042F4B45114485
:10313000FAD1043F0097314F01F1040989FB0723BD
:1031400009EB03024FEAE973C3EBA202C2EBC2022E
:103150006369C2EB09092269B3EB0903DDF800904A
:1031600002F1FF3248BF073350F80900C2EBC20238
:103170001344834202DB073B8342FCDA0B44A06921
:10318000226A0CFB030001350244022D44F81C2F77
:10319000B3D1B36BF26901209A42ACBF0023012383
:1031A000336003B0BDE8F08FBAF1000F0CBF5B468F
:1031B0000123ABE7002003B0BDE8F08F62690199FD
:1031C00002EB080349B9BAF1000F06D03B2AD4BF7D
:1031D000002201221344013BD1E7BBF1000FF5D1DE
:1031E0005A46F7E763694344C9E700274146009719
:1031F000A1E700BF1F85EB51908D000093244992F9
:10320000805101002DE9F84F80460E46174602F026
:10321000C3FED8F80020B54B824683FB0203D117CA
:10322000B34C1344C1EB234304FB1324002C04DAF6
:1032300004F5A83404F5C074013BAE49E21781FBE4
:10324000049CA444C2EBEC2C4FF4616101FB1C41D3
:10325000A948AA4C1A1D80FB01B082FB0445441802
:10326000C817C0EB641402EB0509D017C0EBA90026
:10327000C0EBC000101AC4EB041548BF0730A1EB27
:103280008501002B86E81210B0619D4D9D4840F2EB
:10329000B2744FF4C87CC0F2A5804FF0640B10E00C
:1032A000E21785FB0491C2EBE1120CFB1242D2F152
:1032B000010238BF002250F822108B4211DB01348A
:1032C0005B1AA207ECD185FB0421E217C2EB611166
:1032D0000BFB11410029E4D0012250F822108B424F
:1032E000EDDA4FEA42094A44A4F26C75864900209F
:1032F0001201F361756130618D5801EB0209AB4237
:1033000008DB4946012232615B1B51F8045F013240
:103310009D42F8DD0133F36027B10023336230466C
:10332000BDE8F88F01F096FD784B1B68002B7AD131
:103330003762DAF820006F4FC51780FB0723C118EA
:10334000C5EBE1214FF4616303FB11016A4C87FB7C
:10335000002E81FB042384FB0172CC17CF18C4EB31
:1033600067170A440EEB0003C4EB6212C7EB071E9B
:1033700034687768B068A1EB8E01611AC5EBE3236E
:10338000C31ABA1A3B2986E80E0068DD01323C39BF
:1033900086E806003B2A40F3838001333C3AB36061
:1033A0007260172B62DDB269F1690132062AC8BF6B
:1033B0000022B261F2680131F161183B01323169DA
:1033C000B360F26059F821309A4206DD0131D31A18
:1033D0000C29F36000F08380316101F03DFD30463F
:1033E000BDE8F88F4FF064090FE0E21785FB04B1E8
:1033F000C2EBE1120CFB1242D2F1010238BF0022F3
:1034000050F822105B187FF56CAF013CA107ECD19E
:1034100085FB04B1E217C2EB611109FB11410029E0
:10342000E4D00122ECE7DAF80430A34204D02046CD
:10343000FFF71CFE00284BD0DAF80030002B37D005
:10344000D8F80030DAF81C20934245DBDAF838204F
:10345000934241DA01233362DAF83C006BE700293A
:1034600098DA013A3C3186E8060093E7002BB4DA9B
:10347000B269F169013A48BF0622B261F2680139C6
:103480001833013AF161B360F260002AA5D13369C3
:10349000013B3DD433619B0059F80330F3609CE756
:1034A000002ABFF67EAF013B3C32B360726078E722
:1034B000D8F80030DAF81C209342CBDADAF838205A
:1034C0009342ACBF002301233362002BC4D130E709
:1034D0004FF0FF3333622CE70023336229E7726930
:1034E0000023013272613361F36176E707452EC232
:1034F00080510100C5B3A29189888888932449929C
:103500001F85EB51F08D0000908D000038100020D9
:1035100073690B215A1E72619207316114D003F254
:103520006B73DA1710484FF4C87180FB03B0C2EB1D
:10353000E01201FB1233D3F1010338BF002303F57E
:10354000B673F3612C23A7E7074903F26B7381FB82
:103550000371DA17C2EB6111642000FB11310029FD
:10356000E0D040F26D13ECE71F85EB510EB4F0B5DF
:103570009CB021AC54F8042B0E49064623464FF468
:10358000027E6FF0004508684FF6FF7702A90296A9
:1035900006960194ADF814E004950795ADF8167001
:1035A00000F0E8F9029B00221A701CB0BDE8F04060
:1035B00003B070470805002040EA010C1CF0070F1B
:1035C00027D1BDF1100DCDE90245CDE900676FF0BF
:1035D00000064FF0000700BFF0E80223F1E80245C3
:1035E000A242A2F1013C2CEA020C0CF0803C08BF84
:1035F000BCF1000F40F0E580AB42A3F1013C2CEAA6
:10360000030C0CF0803C08BFBCF1000F40F0D680EA
:10361000E2E710F0030C21D020F0030050F8042B57
:103620005FEACC7C08D00FD211F801CB5FFA92F39D
:10363000B3EB0C0C10D17BB111F801CB5FFAA2F304
:10364000B3EB0C0C08D13BB111F801CB5FFAB2F32C
:10365000B3EB0C0C00D10BB960467047BDF1100DF7
:10366000CDE90245CDE900676FF000064FF0000795
:1036700011F0030C33D110F0040F0FD050F8042BCD
:1036800051F8044BA242A2F1013C2CEA020C0CF0CE
:10369000803C08BFBCF1000F40F0938011F0040F94
:1036A00099D051F8045B00BFF0E80223AA42A2F1CE
:1036B000013C2CEA020C0CF0803C08BFBCF1000F6E
:1036C00079D1F1E80245A342A3F1013C2CEA030CB5
:1036D0000CF0803C08BFBCF1000F69D1E4E721F099
:1036E0000301BCF1020F20D03FDA51F8045B00BFA8
:1036F00050F8043B4FEA1525A3F1013C2CEA030CDA
:103700000CF0803CB7EB0C2F03EA162208BFAA424C
:1037100051D151F8045BBCF1000F82EA03034FEA78
:10372000056208BF934240D1E2E751F8045B00BF55
:1037300050F8043B4FEA1545A3F1013C2CEA030C79
:103740000CF0803CB7EB0C4F03EA164208BFAA42CC
:1037500031D151F8045BBCF1000F82EA03034FEA58
:10376000054208BF934220D1E2E751F8045B00BF55
:1037700050F8043B4FEA1565A3F1013C2CEA030C19
:103780000CF0803CB7EB0C6F03EA166208BFAA424C
:1037900011D151F8045BBCF1000F82EA03034FEA38
:1037A000052208BF934200D1E2E719BA12BA0AE033
:1037B00019BA22BA07E011BA2ABA04E019BA2ABA29
:1037C00001E011BA22BA9CFA8CF0DDE90067DDE96C
:1037D00002451DF1100D38B1B0FA80F0C0F11800AB
:1037E00021FA00F122FA00F20120914298BF8041B3
:1037F000704700BF80EA0102844612F0030F4FD1E8
:1038000011F0030F32D14DF8044D11F0040F51F8AF
:10381000043B0BD0A3F101329A4312F0803F04BF66
:103820004CF8043B51F8043B16D100BF51F8044B4F
:10383000A3F101329A4312F0803FA4F101320BD17F
:103840004CF8043BA24312F0803F04BF51F8043B04
:103850004CF8044BEAD023460CF8013B13F0FF0F61
:103860004FEA3323F8D15DF8044B704711F0010F94
:1038700006D011F8012B0CF8012B002A08BF704765
:1038800011F0020FBFD031F8022B12F0FF0F16BF5C
:103890002CF8022B8CF8002012F47F4FB3D1704724
:1038A00011F8012B0CF8012B002AF9D1704700BF49
:1038B00020F0030110F00300C0F1000051F8043BB8
:1038C00000F1040C4FEACC0C6FF000021CBF22FA8E
:1038D0000CF213434FF0010C4CEA0C2C4CEA0C4C4C
:1038E000A3EB0C0222EA030212EACC1204BF51F845
:1038F000043B0430F4D013F0FF0F1FBF013013F46A
:103900007F4F013013F47F0F18BF0130704700BFA5
:1039100040EA01039B0770B42AD1032A28D90C4638
:103920000346214654F8045BA5F1013626EA050654
:1039300016F0803F05D1043A032A43F8045B214680
:10394000EFD89AB10C78013A1C7001333CB16AB1DE
:1039500011F8014F013A03F8014B002CF7D12AB1BD
:103960001A44002103F8011B9342FBD170BC70473D
:103970000346E6E72DE9F04FC9B010930C9191464C
:103980000D9002F00DFB00681590FFF791FF0C9C65
:103990001890A3891E0603D52369002B01F08180AE
:1039A00038ACA44608942B9400250024CDE9164594
:1039B000002311932D932C931A9319930E9366461B
:1039C00099F80030002B00F0F880252B00F0F580EE
:1039D00009F1010201E0252B04D0137814460132CD
:1039E000002BF8D1C9EB04057DB12C9B2D9A013336
:1039F0002A44072BC6F8009075602D922C9300F393
:103A0000C28008360E9828440E902378002B00F0D0
:103A1000C280002394F801801A468DF88F300F93EE
:103A2000099304F101094FF0FF340A9409F10109E7
:103A3000A8F12003582B00F2C583DFE813F06A02D7
:103A4000C303C3037102C303C303C303C303C30399
:103A5000C30314036603C3039D00C000C3037802BD
:103A60007F027F027F027F027F027F027F027F024E
:103A70007F02C303C303C303C303C303C303C3035B
:103A8000C303C303C30390027103C3037103C303DE
:103A9000C303C303C3036A03C303C3037800C3039D
:103AA000C303C303C303C3035900C303C303AF0268
:103AB000C303C303C303C303C303C303C303C303D6
:103AC000C303C30337034803710371037103FF0288
:103AD0004803C303C3030803C303C5027C002003D8
:103AE000A303C303D902C3035F00C303C303DE0000
:103AF000DDF824C04CF0100CCDF824C0099CA206BF
:103B000000F15483099CE30600F1BD85DDF824C073
:103B10001CF0400F00F0B785DDF840C00025BCF870
:103B200000400CF1040C0123CDF840C08CE0099D4D
:103B300045F010050995DDF824C01CF0200340F085
:103B40002A83DDF824C01CF0100240F0A485DDF8C3
:103B500024C01CF0400300F09E85DDF840C01346F1
:103B6000BCF800400CF1040C0025CDF840C06BE01F
:103B70000F9C109364420F94099D45F0040509952C
:103B800099F8008052E70D980C992BAA03F0B0F831
:103B900040B938AE36E72D9B23B10D980C992BAA6E
:103BA00003F0A6F80C9C0E98A38913F0400F18BFE1
:103BB0004FF0FF3049B0BDE8F08F4C4625E799F84B
:103BC000008009F10100B8F12A0F01F00C81A8F181
:103BD0003003092B98BF002101F26B8010F8018B94
:103BE00001EB810103EB4101A8F13003092BF5D969
:103BF00041EAE1710A9181461AE7099DA14CAF069D
:103C00001A948DF88F2040F1D181DDF840C00CF17D
:103C1000070323F0070303F108041094D3E90045D8
:103C2000DDF824C01CF0010F00F0628454EA0500A6
:103C300000F05E8430234CF0020C8DF890308DF84B
:103C40009180CDF824C002234FF0000A8DF88FA098
:103C50000A99002905DBDDF824C02CF0800CCDF892
:103C600024C054EA050040F0C5820A99002940F0BA
:103C7000C182002B40F03884DDF824C01CF0010F15
:103C800000F0328448AF3023089D07F8413DEC1B1B
:103C9000DDF828C000256445A8BFA446CDF82CC097
:103CA0001495BAF1000F02D00B9D01350B95099BBD
:103CB00013F00203129302D00B9D02350B95DDF831
:103CC00024C01CF0840CCDF84CC040F090820F9DB5
:103CD000DDF82CC0CCEB050BBBF1000F40F3878265
:103CE000BBF1100F2D992C9ADFF8A0A12CDD1B97AA
:103CF000304657461025CA460C9EA1460D9C06E04C
:103D0000ABF1100BBBF1100F00F1080017DD013211
:103D10001031072A2D912C9207604560F0DD204676
:103D200031462BAA02F0E4FF00287FF43BAFABF151
:103D3000100BBBF1100F2D992C9A38A8E7DC4C46DC
:103D4000D146BA461B9F064601320BEB010C072AEF
:103D5000CDF8B4C02C9286E8000C00F31A849DF8CC
:103D60008FA00836BAF1000F0FD02C9B0CF1010C7C
:103D700001330DF18F010122072BCDF8B4C02C9334
:103D800086E8060000F3A4830836129B73B12C9BCF
:103D90000CF1020C013324A90222072BCDF8B4C088
:103DA0002C9386E8060000F387830836139D802D48
:103DB00000F0CA820A9DC4EB050ABAF1000F3BDD90
:103DC000BAF1100F2C9B304D2BDD0A9432464FF088
:103DD000100B2E4661460D9C0C9D06E0AAF1100AC0
:103DE000BAF1100F02F1080217DD01331031072B71
:103DF0002D912C9382E84008F0DD204629462BAA1D
:103E000002F076FF00287FF4CDAEAAF1100ABAF1D5
:103E1000100F2D992C9B38AAE7DC0A9C35468C465E
:103E200016460133D444072BCDF8B4C02C9386E852
:103E3000200400F335830836099DED0500F1248246
:103E40002C9BA4440133072BCDF8B4C037607460B9
:103E50002C9300F30F830836099C630749D50F9D07
:103E60000B982C1A002C44DD102C2C9BDFF81CA086
:103E70002BDD574610256246DDF83080DDF834A092
:103E80000BE000BF2C8E0000F88D00004C8E00006F
:103E9000103C102C06F1080615DD01331032072BFB
:103EA0002D922C9337607560F2DD504641462BAA67
:103EB00002F01EFF00287FF475AE103C102C2D9AE6
:103EC0002C9B38AEE9DC9446BA460133A444072B58
:103ED000CDF8B4C02C93C6F800A0746009DD0D982D
:103EE0000C992BAA02F004FF00287FF45BAEDDF8EA
:103EF000B4C00E9C0B980F9DA842ACBF2418641947
:103F00000E94BCF1000F40F0C18200232C9338AE18
:103F100056E599F80080002A7FF488AD202285E5D7
:103F2000099D45F00105099599F800807EE5099DF8
:103F300045F08005099599F8008077E50024A8F1FF
:103F400030030F94214619F8018B01EB810103EB3B
:103F50004101A8F13003092BF5D90F9168E5DDF88F
:103F600024C08DF88F204CF0100CCDF824C0099C93
:103F7000A50640F1B280109DE91D21F00701D1E9AD
:103F800000230831109114461D46002A73F1000CDD
:103F9000C0F294839DF88FA0012359E6099DB64C89
:103FA000AF068DF88F201A943FF52FAE099DED06D0
:103FB00040F14384DDF840C00025DCF800400CF1FE
:103FC000040CCDF840C02BE6DDF824C08DF88F201E
:103FD0001CF0200F00F04084109C21680E9CE51717
:103FE0002B46109D224604351095C1E90023E7E4D5
:103FF000109C4FF0000A27688DF88FA0251D002F18
:1040000000F0E9850A9C3846002CC0F29B85514699
:10401000224602F065FA002800F013860A9CC01BB5
:10402000A042B8BF0446109524EAE475CDF828A054
:10403000CDF850A00B959DF88FA032E6DDF824C096
:104040004CF0400CCDF824C099F80080EEE499F8CB
:1040500000804B46B8F16C0F00F07F84099D45F05D
:1040600010050995E2E4109C109D24682B1D002C7E
:104070000F94FFF67DAD109399F80080D6E4109B65
:10408000DDF824C0109D7D4804351C684FF0780889
:1040900030234CF0020C10958DF89030CDF824C0F0
:1040A00000258DF891801A900223CDE5109B109D7C
:1040B0001A680124002304359A460B948DF8B82021
:1040C00010958DF88F300A9314932EAFEFE5099C6D
:1040D0008DF88F20A5063FF54EAFDDF824C01CF00B
:1040E000100F40F0DF82DDF824C01CF0400F00F01C
:1040F000D982DDF840C0BCF900400CF1040CE51792
:1041000022462B46CDF840C03FE799F800802B228D
:104110008CE4099D45F00805099599F8008085E42F
:10412000109D8DF88F20EB1D23F0070303F1080C81
:10413000CDF840C0D3E90045CDE91645DDE91601CB
:1041400002F09CFD0128DDE9160140F05C830022AD
:10415000002303F077FE002840F063859DF88FA0D0
:1041600003250B95099D464F25F08005454B0024FE
:10417000099500250A94B8F1470FD8BF1F460324BC
:1041800014958EE5DDF824C04CF0200CCDF824C049
:1041900099F800804AE4109CE31D23F0070303F123
:1041A00008051095D3E9004500234DE5109DEB1D52
:1041B00023F0070303F1080CD3E90045CDF840C014
:1041C000012341E58DF88F20B8F1000F3FF4E3ACF7
:1041D00000234FF0010C9A46CDF82CC08DF8B88022
:1041E0008DF88F300A93149364462EAF5FE5DDF8A7
:1041F000B4C0B7E5012B00F0EC80022B0DF1DF031A
:1042000018D1DDF868C0194604F00F0022091CF827
:10421000000042EA05722B09087052EA03000F46BB
:1042200014461D4601F1FF31EED1089DCDE91E2354
:10423000EC1B2DE5E00840EA457004F00702E908B0
:10424000303250EA010C1F461A7004460D4603F145
:10425000FF33EFD1099CCDE91C01E007394640F15D
:10426000C180302A00F0BE80089D1F463023EC1B21
:1042700001F8013C0CE500BF188E00002C8E0000F8
:104280000C8E0000088E0000B8F1650F40F3AD8081
:10429000DDE9160100220023CDF81CC003F0C8FDA3
:1042A000DDF81CC0002800F026812C9BAA490133B0
:1042B0000CF1010C0122072BCDF8B4C02C9386E839
:1042C000060000F3ED820836259B119CA34203DB18
:1042D000099DEC077FF5C0AD2C9B189C0133159D03
:1042E000A444072BCDF8B4C0356074602C9300F360
:1042F0003E830836119D6C1E002C7FF7ADAD102C4F
:104300002C9B964D40F3978110276246DDF8348050
:10431000DDF830A004E00836103C102C40F38A8110
:1043200001331032072B2D922C9386E8A000F2DD8A
:10433000404651462BAA02F0DBFC00287FF432AC49
:104340002D9A2C9B38AEE7E70F9D0B98C0EB050A22
:10435000BAF1000F7FF72EADBAF1100F2C9B7F4DF5
:104360002BDD129432464FF0100B2E4661460D9C09
:104370000C9D06E0AAF1100ABAF1100F02F1080232
:1043800017DD01331031072B2D912C9382E8400863
:10439000F0DD204629462BAA02F0AAFC00287FF473
:1043A00001ACAAF1100ABAF1100F2D992C9B38AA72
:1043B000E7DC129C35468C4616460133D444072B65
:1043C000CDF8B4C02C9386E8200400F30F820836A1
:1043D000F0E4002D08BF0A2C80F03881303448AF5B
:1043E00007F8414D089DEC1B52E4119C012C2C9CBC
:1043F00040F3D28101340CF101030122072C2D93EB
:1044000037602C94726000F3D8810836159DDDF872
:10441000608001343560189D9844072CCDF8B48035
:104420002C94756000F3D5810836DDE91601002271
:10443000002303F0FDFC119D002840F0B9806B1EA5
:10444000013401379844072C2C94CDF8B4803760A0
:10445000736000F3E2800836DDF864C00134199D12
:10446000C44427AB072CCDF8B4C02C9486E82800B0
:104470007FF7F1AC0D980C992BAA02F039FC0028BB
:104480007FF490ABDDF8B4C038AEE5E40D980C993C
:104490002BAA02F02DFC00283FF437ADFFF782BBBA
:1044A0000D980C992BAA02F023FC00287FF47AAB1C
:1044B000DDF8B4C038AEBFE40D980C992BAA02F019
:1044C00017FC00287FF46EABDDF8B4C038AE6DE4A5
:1044D0000D980C992BAA02F00BFC00287FF462AB1C
:1044E000DDF8B4C038AE50E40A9C38AFFFF7D0BB5B
:1044F0000223FFF7A9BB259B002B40F3DD81119C14
:10450000149DDDF844A0AC42A8BF2C46002CBA4450
:104510000BDD2C9BA4440133072BCDF8B4C03760CE
:1045200074602C9300F31E830836149D24EAE4740F
:104530002C1B002C40F3D780102C2C9B074D40F3F4
:10454000A3810A974FF010082F4662462546DDF8F2
:1045500034B00C9C09E000BF488E0000F88D0000CC
:104560000836103D102D40F38B8101331032072B9C
:104570002D922C9386E88001F2DD584621462BAA25
:1045800002F0B6FB00287FF40DAB2D9A2C9B38AEC1
:10459000E7E70D980C992BAA02F0AAFB00287FF4FC
:1045A00001AB9DF88FA0DDF8B4C038AEFFF7DABBE1
:1045B0006F1E002F7FF750AF102FAE4D23DD434607
:1045C0004FF0100ADDF83480DDF830B004E0103F21
:1045D000102F06F1080615DD01341033072C2D933A
:1045E0002C9486E82004F2DD404659462BAA02F0BE
:1045F0007FFB00287FF4D6AA103F102F2D9B2C9C08
:1046000038AEE9DC98460134B844072CCDF8B480C4
:104610002C9486E8A0007FF71EAF0D980C992BAA6A
:1046200002F066FB00287FF4BDAADDF8B4802C9C64
:1046300038AE11E794460133A444072BCDF8B4C03B
:104640002C93356074607FF706AC13E70DF1DF0B38
:10465000204629460A22002303F044FC30328BF81E
:104660000020204629460A22002303F03BFC044692
:104670000D4654EA050C5F460BF1FF3BE8D1089D5F
:10468000EC1BFFF705BB109D01232C68043510952A
:104690000025FFF7D9BA109D2C6804351095002528
:1046A000FFF7D2BA109D2C6804351095E517224605
:1046B0002B46002A73F1000CBFF66CAC4FF02D0AAC
:1046C000644265EB45058DF88FA00123FFF7C0BA62
:1046D0000D980C992BAA02F00BFB00287FF462AA1C
:1046E000DDF8B4C038AE149D259C2F44119DAC421A
:1046F00042DB099DE9073FD41198C7EB0A05041B6B
:10470000AC42B8BF2546002D0BDD2C9BAC440133D9
:10471000072BCDF8B4C0376075602C9300F34C8242
:10472000083625EAE575641B002C7FF795AB102C45
:104730002C9B504D7FF77FAF10276246DDF8348009
:10474000DDF830A004E00836103C102C7FF772AF83
:1047500001331032072B2D922C9386E8A000F2DD56
:10476000404651462BAA02F0C3FA00287FF41AAA49
:104770002D9A2C9B38AEE7E7189D2C9BAC44159DD9
:1047800001333560189D072BCDF8B4C075602C93AC
:1047900000F3F4810836AFE7099DEA073FF52AAE3A
:1047A00001340CF101080123072CCDF8B4802C94BE
:1047B000376073607FF74FAE2FE70D980C992BAAE7
:1047C00002F096FA00287FF4EDA92D9B2C9C38AEC0
:1047D0001CE60D980C992BAA02F08AFA00287FF4A7
:1047E000E1A9DDF8B4802C9C38AE1EE60D980C993A
:1047F0002BAA02F07DFA00287FF4D4A9DDF8B4C01A
:1048000038AEFFF7D7BA02F039FA002840F0BB8083
:10481000099C194F194B4FF0030C24F080040994A4
:104820000A90CDF82CC01490B8F1470FD8BF1F469E
:1048300064469DF88FA0FFF734BA099C640640F1E6
:104840005081DDF840C00025BCF800400CF1040C9C
:10485000CDF840C0FFF7E4B9DDF824C01CF0100F1C
:1048600000F04681109C0E9D2368043410941D6056
:10487000FFF7A6B8F88D0000148E0000108E00001F
:104880002C463D460A9F94460133A444072BCDF89D
:10489000B4C02C93356074603FF71AAF083622E736
:1048A0000D980C992BAA02F023FA00287FF47AA91C
:1048B000DDF8B4C038AE07E52C9AB74901320CF1E7
:1048C000010C0120072ACDF8B4C02C923160706031
:1048D00000F3F78008361C462CB9119D1DB9099DBF
:1048E000E8077FF5B9AA2C9B159D1899013335600F
:1048F000189D6144072B2D9175602C9300F3DE8188
:1049000006F108026442002C40F30B81102CA34DE9
:1049100040F34881A34610260C46DDF83480DDF8CC
:1049200030A006E00832ABF1100BBBF1100F40F3E2
:10493000378101331034072B2D942C9382E86000CB
:10494000F0DD404651462BAA02F0D2F900287FF450
:1049500029A92D9C2C9B38AAE5E7099C09F101099E
:1049600044F02004099493F80180FFF75FB80D9894
:104970000C992BAA02F0BCF900287FF413A9DDF8EA
:10498000B4C038AEB6E40A9D28F0200A013500F024
:10499000A580BAF1470F04D10A9D002D08BF01255B
:1049A0000A95DDF824C0DDE916234CF4807C002B49
:1049B000CDF848C0C0F29C81DDE91645CDE920451F
:1049C0004FF0000BB8F1660F00F09B81B8F1460F75
:1049D00000F0A981BAF1450F0ABF0A9C0A9D651C27
:1049E000022025A926AA29AB8DE821000392049371
:1049F00002910D98DDE9202300F09AFBB8F1670FD2
:104A0000074602D0B8F1470F05D1DDF824C01CF0ED
:104A1000010F00F09C81BAF1460F07EB050400F08E
:104A20001C81DDE920010022002303F001FA0028A7
:104A300040F00581299B9C4206D930215A1C2992BD
:104A40001970299B9C42F9D8DB1BBAF1470F1193CF
:104A500000F0ED80B8F1650F40F3F281B8F1660F18
:104A600000F06881259C1494119C149DAC4200F3C5
:104A70003281DDF824C01CF0010F40F0AD8125EA41
:104A8000E5732C464FF06708BBF1000F40F0B28091
:104A9000129D0B930995CDF828B09DF88FA0FFF7D4
:104AA00000B90D98402101F07FFA206020610028B4
:104AB00000F0BF81DDF830C04023CCF81430FEF7A1
:104AC0006FBF0D980C992BAA02F012F900287FF401
:104AD00069A8259CDDF8B4C038AEFDE606240A942A
:104AE0005FE7109D2C68043510950025FFF798B8F6
:104AF000DDF824C01CF0400F00F08780109C0E9D54
:104B00002368043410941D80FEF75ABF0D980C9949
:104B10002BAA02F0EDF800287FF444A82D992C9BD5
:104B200038AADDF844C00133119C8C44072BCDF822
:104B3000B4C02C93176054603FF79CAC02F1080698
:104B4000FFF78AB9CDF828A0FEF7B2FE10950A9DAE
:104B500020EAE07C0446CDF82CC014959DF88FA087
:104B6000FFF79FB80D980C992BAA02F0C1F8002806
:104B70007FF418A8DDF8B4C038AED6E40D980C99CF
:104B80002BAA02F0B5F800287FF40CA8259CDDF8CC
:104B9000B4C038AEB0E500BF488E0000F88D00000C
:104BA00021465C4601332144072B2D912C9315603F
:104BB0005460ABDC0832B4E70D980C992BAA02F0D4
:104BC00097F800287EF4EEAF259C1199DDF8B4C06B
:104BD0000C1B38AEA5E50A9CBA46062C28BF062455
:104BE00024EAE47C0A9714971095CDF82CC0974FCF
:104BF000FFF757B8129D4FF02D0A099500250B932A
:104C00008DF88FA00A95FFF74FB8DDF840C00E9CD5
:104C1000DCF800300CF1040CCDF840C01C60FEF74D
:104C2000CFBE4FF02D0A8DF88FA0FFF799BA259BC4
:104C3000DC1C19DB0A9C9C4216DB149314E7234608
:104C400002E724EAE47CCDF82CC00A9C10950A9077
:104C500014909DF88FA0FFF724B83B78302B00F01C
:104C6000AD80259D2C44DCE6A8F10208591E0029E0
:104C70002591BABF49422D232B2309298DF89C8009
:104C80008DF89D3065DC302330318DF89E308DF805
:104C90009F1028AB119D27AA119C9A1A012D1992D9
:104CA000144440F3B7800134002524EAE4731495DA
:104CB000EAE6002481460A94FEF7BABE0D980C99E4
:104CC0002BAA02F015F800287EF46CAF259C2D99D4
:104CD0002C9B38AA16E6149C119D002CD4BFC4F15D
:104CE000020401242C4424EAE4734FF06708CBE665
:104CF0001799169801F10041209021914FF02D0B4A
:104D000060E60A9D032025A926AA29AB01950090FB
:104D10000392049302910D98DDE9202300F008FA34
:104D20000A9D074677E60A9C032025A926AA29ABF7
:104D30000194ECE7259D0A9C002D149563DDB4BB1E
:104D4000099DE80733D4149C24EAE4739CE6299B6C
:104D50007AE60DF1AA023E4DCB1785FB0150C3EB5D
:104D6000A00000EB8003A1EB43010928134601F1E9
:104D700030021A70014603F1FF32ECDC00F1300121
:104D80000DF1AB04C9B2944203F8011C5AD90DF1DC
:104D90009D001A4601E012F8011BA24200F8011F13
:104DA000F9D10DF5907CC3EB4C03F63B72E70A9DFD
:104DB0006C1C149D2C4424EAE47365E6DDE92001B3
:104DC0000022002303F034F800287FF44AAFC5F135
:104DD000010525952C4424E6149D4FF067086C1CB2
:104DE00024EAE47350E6109DDDF840C02D680CF114
:104DF0000403002D99F801800A9510938146BEF6B0
:104E000015AEFEF710BE7CB9099DE9070CD401234D
:104E10001C4639E6DDF824C01CF001037FF443AFE3
:104E2000149324EAE4732FE60A9DAC1C24EAE4738D
:104E30002AE60D9D0C232B604FF0FF30FEF7BABE23
:104E4000259B13E70DF19E0324E700BF408E000071
:104E500067666666704700BF704700BFF0B59BB0DD
:104E60000D466FF000444FF402774FF6FF76694627
:104E700000950495ADF80C7002940594ADF80E60A1
:104E8000FEF778FD009B00221A701BB0F0BD00BF3A
:104E900030B4044C0D46134601462A46206830BC07
:104EA000FFF7DCBF08050020024B13B1024800F0F9
:104EB0007DB8704700000000695F00002DE9F04FE9
:104EC000384B85B01B68029003F5A47201930F461E
:104ED0000392019BD3F84881B8F1000F1CD0DDF894
:104EE0000CB04FF00109DA46D8F804305C1E11D43A
:104EF00008F188059E1C05EB830508EB860677B153
:104F0000EB6FBB420BD0013C631CA5F10405A6F17D
:104F10000406F4D1244A7ABB05B0BDE8F08FD8F876
:104F2000042056F8043C013AA24216BF0022C8F8F9
:104F3000044046F8042C002BE5D009FA04F2D8F816
:104F40008811D8F804B00A4210D0D8F88C110A425F
:104F50000ED1029855F8041C9847D8F804305B45E8
:104F6000B7D1DAF800304345CDD0B2E79847F4E73F
:104F700055F8040C9847F0E7D8F804306BB9D8F826
:104F8000003063B14046CAF80030AFF30080DAF871
:104F90000080B8F1000FA7D1BEE7D8F80030C246B4
:104FA0009846F6E72C8D0000000000000146002026
:104FB0000246034601F01CBF10B4002991FBF2F435
:104FC00002FB141306DB002B0EDB046043605DF86C
:104FD000044B7047002BC4BF04F1FF349B180460DE
:104FE00043605DF8044B704701349B1A04604360D2
:104FF0005DF8044B704700BF2DE9F04F03690D6960
:1050000083B09D42834600F38C80013D01F114047E
:1050100000F1140A54F825205AF825300132B3FB68
:10502000F2F8AA00914600925244A1440192B8F1CC
:10503000000F3ED000263046224653468C4652F89A
:10504000047B19681FFA87FE3F0C0EFB086E07FBF6
:1050500008F606EB1E461FFA8EFECEEB000E8FB250
:10506000B0B27744C0EB114000EB2740BFB247EA33
:105070000047914543F8047B4FEA20404FEA16462B
:10508000DDD2009A61465AF8023093B9019A131F93
:105090009A450CD252F8043C4BB9A2F1080302E045
:1050A0001A68043B1AB99A4505F1FF35F8D3CBF8D5
:1050B0001050584601F0F4FC00282EDB08F10108DE
:1050C0005346002254F8046B1868B1B2511A87B2E3
:1050D000360C3944C6EB104000EB214289B241EA5C
:1050E0000241A14543F8041B4FEA2242EAD25AF892
:1050F00025200AEB850382B91A1F92450BD253F87B
:10510000042C42B9083B02E01A68043B1AB99A45DC
:1051100005F1FF35F8D3CBF81050404603B0BDE899
:10512000F08F002003B0BDE8F08F00BF000000004A
:105130002DE9F04F016C9BB0044692469B46279D9B
:1051400041B1436C01229A404B608A6001F0B2FA8F
:1051500000232364BBF1000FD94633DB00232B600F
:10516000A54B1A4609EA0303934214D05046594608
:105170000022002302F05CFE804648B3269E289D54
:1051800001233360002D00F0CA809C48286001385C
:105190001BB0BDE8F08F269D42F20F732B60BAF171
:1051A000000F00F0A5809648289E002EF0D0C3780E
:1051B000002B00F0B68000F10803289D2B601BB087
:1051C000BDE8F08F01232BF000492B60CB46C7E7E9
:1051D00019AA18AB8DE80C00204652465B4601F038
:1051E000EFFC5FEA19550A9040F08B80189F199DDB
:1051F0006FF482633D449D42C0F295821F3305F2F5
:1052000012425B1B09FA03F32AFA02F243EA020094
:1052100002F030FB0126013DB846A1F1F871169667
:105220000022784B02F0E8F96DA3D3E9002302F0E5
:1052300097FB6DA3D3E9002302F0E0F90646284668
:105240000F4602F027FB6AA3D3E9002302F088FB94
:1052500002460B463046394602F0D0F906460F4664
:1052600002F018FE3946079000223046002302F073
:10527000E9FD002840F02982079E162E00F22282C6
:105280006149524601EBC6015B46D1E9000102F0DB
:10529000F7FD002800F04C82013E079600260E968E
:1052A000C5EB0805013D069500F12682002508950D
:1052B000079E002EC0F21782069D0D9635440026EB
:1052C00006950C96249D092D2DD8052DC4BF043DAF
:1052D0002495249EC8BF0025A6F10203D8BF01254E
:1052E000032B22D8DFE813F0B7039E02C0039A0411
:1052F000464A434BC9F3130000280CBF104618461A
:1053000052E7CBF3130343F07F51CDF8588050465A
:10531000A5F2FF3541F44011DDF8608080E73C489C
:1053200036E7C31C49E70025249500256564294616
:10533000204601F099F94FF0FF3901260990259593
:105340002064CDF83C900B96199B002BC0F2D280C4
:10535000079E0E2E00F3CE802B4B03EBC603D3E942
:105360000001CDE9040125990029C0F28083DDE91F
:1053700004235946504602F01DFC02F08BFD054601
:1053800002F088FADDE9042302F0EAFA02460B464D
:105390005046594602F030F9099A05F13003B9F147
:1053A000010F06460F46137002F1010B64D0002274
:1053B000184B02F0D5FA0022002306460F4602F0F1
:1053C00037FD002840F08180DDF82480099DC84425
:1053D000DDE904AB05F10209039428E0AFF3008096
:1053E00061436F63A787D23FB3C8608B288AC63FEB
:1053F000FB799F501344D33F0000F07F498E00009B
:105400006C8E00000000F83F808E0000608E00006F
:10541000488E00000000244002F0A2FA002200237F
:1054200006460F4602F004FD002840F0C1835246B4
:105430005B463046394602F0BDFB02F02BFD0546C7
:1054400002F028FA52465B4602F08AFA02460B4600
:105450003046394602F0D0F805F1300EC14509F862
:1054600001EC4C4606460F464FF00002A74B09F1EF
:105470000109D1D1A346039C32463B46304639460A
:1054800002F0BCF806460F463246DDE904013B4611
:1054900002F0D8FC40B9DDE9040132463B4602F097
:1054A000C7FC90B1EB0710D51BF8015C099A05E029
:1054B0009A4200F0298413F8015C9B46392D0BF1C8
:1054C000FF33F5D06A1CD2B21A7020460A9901F057
:1054D000F1F8079E269D731C289E00228BF8002061
:1054E0002B60002E00F025830998C6F800B01BB091
:1054F000BDE8F08F0B9D002D00F00381249E012E4E
:1055000040F3DC820C9E09F1FF37BE42C0F2898372
:10551000F71BB9F1000FC0F28784089D4B46089E27
:1055200020461E440896069E01211E44069601F060
:1055300063F9064665B10698002809DD0346089917
:10554000AB42A8BF2B46C91AC01A0891ED1A0690A3
:105550000C9A002A1DDD0B9B002B00F05883002FB6
:1055600011DD31463A46204601F0EEF90646314655
:105570000A9A204601F04AF90A998046204601F02D
:1055800099F8CDF82880DDF830E0BEEB070240F056
:105590008F822046012101F02FF980460D980028C6
:1055A00005DD414620460D9A01F0CEF9804624994A
:1055B000012940F3C18200270D98002840F0AF82F6
:1055C0000120069B034413F01F0300F0A180C3F1E8
:1055D0002002042A40F3B7840899069AC3F11C03F9
:1055E00019441A4408911D4406920899002905DDC2
:1055F0000A99089A204601F0F5F90A90069A002ABD
:1056000004DD4146204601F0EDF980460E9B002B5B
:1056100040F06A82B9F1000F40F3A6820B9800288F
:1056200040F088800B9D0A9FDDF824B006E03946E3
:1056300020460A22002301F047F807463846414633
:10564000FFF7DAFC30300BF805000135A945EEDC38
:10565000DDF824B082460A97B9F1010FACBFCB4404
:105660000BF1010B00250A990122204601F0BAF93D
:1056700041460A9001F014FA002840F309831BF810
:10568000012C099905E0994200F08B8213F8012C56
:105690009B46392A0BF1FF33F5D001321A7041468F
:1056A000204601F007F8002E3FF40FAF2DB1B542B0
:1056B00003D02946204600F0FDFF3146204600F089
:1056C000F9FF02E701260E96EAE5079802F0E2F8F4
:1056D00032463B4602F0ACFB00287FF4CDAD079E7E
:1056E000013E0796C8E5079E089DAD1B08957542CB
:1056F00000260C950D96E5E56D4200260895069668
:10570000D6E50C9F089D0B9E14E700BF00002440C7
:105710001C23DDF820E006989E441844CDF820E0D4
:105720001D44069061E7A748401B0AFA00F06FE5A8
:105730000E90B5E5002D05DD31462A46204601F0E4
:1057400051F90646002F40F0E9823746099D099835
:105750004D4408950AF001050B95DDF82890451C8D
:105760000AE000F0B1FF394606460A22204600232F
:1057700000F0AAFF0746013541464846FFF73CFCCA
:1057800031468346484601F08BF9414603903A463C
:10579000204601F0A9F9C268691E03460BF1300AE0
:1057A0000691002A40F0938119464846029301F081
:1057B00077F9029B024619462046029200F07AFFD2
:1057C000029A2AB9249B1BB90B98002800F09383F6
:1057D000039B002BC0F2348205D1249818B90B9991
:1057E000002900F02D82002A00F3AC82DDF820E0D1
:1057F00005F801AC7545AB4600F0B48249460A2273
:105800000023204600F060FFBE428146314620461C
:105810004FF00A024FF00003A3D100F055FF0646F7
:105820000746A8E700260B96079EDDF894E0B644ED
:105830000EF10109B9F1000FCDF83CE04E4640F3FE
:1058400050810021172E61640AD9012204235B00D4
:1058500003F11400B042114602F10102F7D961646C
:10586000204600F001FF0E2E099020643FF66CAD3B
:10587000002D3FF469AD079DCDE912AB002D40F33B
:105880001C82514B05F00F0203EBC2032D11D3E92B
:105890000067EB0640F1CD814C4B50465946D3E9A9
:1058A000082302F087F9CDE9100105F00F054FF04C
:1058B00003088DB1DFF814A130463946EE0705D54F
:1058C000DAE9002308F1010802F04AF86D100AF144
:1058D000080AF3D106460F46DDE9100132463B4681
:1058E00002F068F982468B460E9D45B150465946F6
:1058F0000022374B02F0A6FA002840F0AA82404668
:1059000001F0C8FF52465B4602F02AF80022314BF4
:1059100001F074FE0646A1F15077B9F1000F00F0D6
:105920005A81079DC84617950B9D002D00F02382D4
:10593000254B002003EBC80353E90223264902F05C
:1059400039F932463B4601F057FECDE91001594680
:10595000504602F09FFA054601F09CFF02460B46B6
:105960005046594601F048FE3035099ECDE9040104
:10597000DDE90423DDE91001EDB2357006F1010B1C
:1059800002F07EFA002840F0AB82DDE9042300201B
:105990000F4901F031FE02460B46DDE9100102F02D
:1059A0006FFA002840F0A282B8F1010F40F3818124
:1059B000B044CDF85090A246C146DDE90467DDE968
:1059C000104519E0EEFBFFFF808E0000488F0000BD
:1059D0000000F03F00001C400000E03F0020A8490C
:1059E00001F00AFE22462B4602F02CFA002840F075
:1059F0007B82CB4500F05A81204629460022A14BEC
:105A000001F0AEFF00229F4B04460D46304639465A
:105A100001F0A6FF0F46064602F03CFA804601F070
:105A200039FF02460B463046394601F0E5FD08F1E4
:105A300030085FFA88F822462B460BF8018B0646A1
:105A40000F4602F0FFF932463B460028C6D0179EAB
:105A50005446079639E500260B96259800283CDD2C
:105A600006460F908146ECE601260B96F5E7B9F164
:105A7000000F3FF77CAC40F0C680DDE90401002256
:105A8000814B01F06DFF52465B4602F0EFF9C846CC
:105A90004E4600287CD0259DDDF824B0ED430795C7
:105AA0004146204600F006FE002E7FF406AE0CE5CF
:105AB0000A99204600F048FF0A906AE5169D002DDD
:105AC00000F0B88103F233430C9F089D27E501469F
:105AD000204600F0EFFD01227AE6012625960F967A
